:020000040000FA
:060000006FEF3DF012005D
:020006001200E6
:020008000100F5
:01000A0000F5
:01000B0000F4
:02000C001001E1
:0800180071EF02F01200929852
:10002000956A9690959E96929694F294F194F28A9F
:10003000D58CD59AD596F80ED5140109D56ED76A08
:10004000D66AD58E0001800ED06F8C6A8D8289862B
:100050008988560ED16F350ED26F820ED36F450E42
:10006000D46F200ED56F1200D9CFE6FFE1CFD9FFB4
:10007000E6528D808C8E8D828D840001BE5149E1C7
:10008000BB51030A0FE0010A0AE0030A05E0010A76
:100090000BE1AAC0DFFF08D0ABC0DFFF05D0ACC0CA
:1000A000DFFF02D0ADC0DFFFDF500C0A30E0070AEF
:1000B0002CE0010A28E0030A24E0010A20E00F0AEC
:1000C0001CE0010A18E0030A14E0010A10E0070A24
:1000D0000CE0010A08E0030A04E0010A14E0800EC3
:1000E0002DD0860E2BD0DB0E29D0CF0E27D0E60EDA
:1000F00025D0ED0E23D0FD0E21D0870E1FD08C68A9
:100100001ED0EF0E1BD0BF0E19D0D40E17D0F10E9B
:1001100015D0BB51030A0FE0010A0AE0030A05E00B
:10012000010A0BE1AEC0DFFF08D0AFC0DFFF05D092
:10013000B0C0DFFF02D0B1C0DFFFDF508C6EBB511B
:10014000030A1BE0010A11E0030A08E0010A1EE1AC
:10015000B551BD5D15E28D908C8E05D0B651BD5D5B
:100160000FE28D808C9E8D8206D0B751BD5D08E276
:100170008D808C8E8D928D8409D0B851BD5D02E347
:100180000AD804D08D808C8E8D828D94E552E552F4
:10019000E7CFD9FF1200800E8C1612000001BB5170
:1001A000030A12E0010A0CE0030A06E0010A10E16A
:1001B000B551BD5D0DE30BD0B651BD5D09E307D070
:1001C000B751BD5D05E303D0B851BD5D01E3E3DF89
:1001D0000001B951BD5D02E389888986BA51BD5DD0
:1001E00001E3899E12000001B951BD5D03E38988D6
:1001F00089860AD0B21DE8B08988E8A08998B31D25
:10020000E8B08986E8A08996BA51BD5D02E3899E6F
:100210001200B451E8B0898EE8A0899E1200000156
:10022000B36B12000001010EB36F12000001010E4A
:10023000B26F12000001B26B12000001B46B120029
:100240000001010EB46F1200D9CFE6FFE1CFD9FF54
:10025000FE0EDBCFB5F0DBCFB6F0DBCFB7F0DBCFF8
:10026000B8F0DBCFB9F0DBCFBAF0E552E7CFD9FF7A
:100270001200D9CFE6FFE1CFD9FFFE0EDBCFB5F0FC
:10028000DBCFB6F0DBCFB7F0DBCFB8F0DBCFB9F028
:10029000E552E7CFD9FF1200D9CFE6FFE1CFD9FF72
:1002A000FE0EDBCFBAF0E552E7CFD9FF1200D9CF6F
:1002B000E6FFE1CFD9FF0001BE6BFE0EDBCFAAF057
:1002C000FD0EDBCFABF0FC0EDBCFACF0FB0EDBCFDB
:1002D000ADF0E552E7CFD9FF1200D9CFE6FFE1CF6D
:1002E000D9FF050EE1260001BE6B010EF36E040E70
:1002F000F3CFDBFFFD0EDBCF00F0FE0EDBCF01F016
:100300000A0E256E266A00C020F001C021F039ECEB
:100310003DF01CC000F01DC001F0030E1CC0DBFF4F
:10032000D950FD0FE96EFF0EDA20EA6E0A0E256E37
:10033000266AEECF20F0EDCF21F039EC3DF020C061
:10034000EEFF21C0EDFFFD0EDBCF00F0FE0EDBCF98
:1003500001F00A0E256E266A00C020F001C021F0CF
:1003600039EC3DF01CC000F01DC001F0020E1CC0B5
:10037000DBFFD950FD0FE96EFF0EDA20EA6E0A0EA0
:10038000256E266AEECF20F0EDCF21F039EC3DF05E
:1003900020C0EEFF21C0EDFFFD0EDBCF00F0FE0E12
:1003A000DBCF01F00A0E256E266A00C020F001C0E6
:1003B00021F039EC3DF01CC000F01DC001F0010E31
:1003C0001CC0DBFFD950FD0FE96EFF0EDA20EA6E8C
:1003D0000A0E256E266AEECF20F0EDCF21F039EC23
:1003E0003DF020C0EEFF21C0EDFFFD0EDBCF00F0A1
:1003F000FE0EDBCF01F00A0E256E266A00C020F04B
:1004000001C021F039EC3DF01CC000F01DC001F02E
:100410001C50DF6EDF5003E1630EDF6E02D0040E6E
:10042000DB6A010EDB5007E1040EDB5004E0DE5214
:10043000630EDD6E02D0040EDB6A020EDB5009E1B2
:10044000040EDB5006E0630EF36E020EF3CFDBFF0B
:1004500002D0040EDB6A030EDBCFE6FF020EDBCF19
:10046000E6FF010EDBCFE6FFDFCFE6FF20DFE55240
:10047000E552E552E552050EE15C02E2E16AE55221
:10048000E16EE552E7CFD9FF12000001BE6BC7DE77
:100490000001630EAA6FAB6F0A0EAC6F0B0EAD6F4F
:1004A00012000001BE6BBBDE0001630EAA6F0A0ED4
:1004B000AB6F0C0EAC6FAD6F1200D9CFE6FFE1CF82
:1004C000D9FFFE0EDBCFB5F0FD0EDBCFB6F0FC0E94
:1004D000DBCFB7F0FB0EDBCFB8F0E552E7CFD9FFAB
:1004E0001200D8CFE4FFE0CFE4FFE46EDACFE4FF00
:1004F000E2CFDAFFE9CFE4FFEACFE4FFF6CFE4FF93
:10050000F7CFE4FFF5CFE4FFF3CFE4FFF4CFE4FF50
:10051000FACFE4FF00EE18F0140EE80403E3EECF88
:10052000E4FFFBD700EE00F0180EE80403E3EECF83
:10053000E4FFFBD7E652F2A417D0F2940001BC2BE3
:100540000001D5510001BC5D0BE3BC6BBD6B4BDE04
:10055000030E0001BB5D02E3BB6B01D0BB2B84DD4E
:100560001DDE0001BD2B09D09EA007D0BBEC38F0EA
:10057000CEEC38F0E1EC38F09E90E55200EE17F04A
:10058000180EE80403E3E5CFEDFFFBD700EE2BF0F8
:10059000140EE80403E3E5CFEDFFFBD7E5CFFAFF48
:1005A000E5CFF4FFE5CFF3FFE5CFF5FFE5CFF7FFAC
:1005B000E5CFF6FFE5CFEAFFE5CFE9FFE5CFDAFFCC
:1005C000E550E5CFE0FFE5CFD8FF1000D9CFE6FF3B
:1005D000E1CFD9FFFE0EDBCFB2F0E552E7CFD9FF76
:1005E0001200D9CFE6FFE1CFD9FF0001010EBE6FA7
:1005F000FE0EDBCFAEF0FD0EDBCFAFF0FC0EDBCF9F
:10060000B0F0FB0EDBCFB1F0E552E7CFD9FF12001F
:100610000700787B0000600000002F0000000C0045
:100620000000D8000000020000000B000000DC0009
:10063000000001000000637B0000AA00000015001C
:100640000000487B00008F0000001B0000000A0033
:100650000000DB0000000100000008000000D600E0
:0606600000000200000092
:0A066600D9CFE6FFE1CFD9FFE6523D
:10067000FD0EDBCFE9FFFE0EDBCFEAFF0A0EE92617
:10068000000EEA22EFCF00F0FB0EDBCFE9FFFC0EFD
:10069000DBCFEAFF0A0EE926000EEA22EF50005CEB
:1006A0000FE0150EE76EF90EDBCFE9FFFA0EDBCF98
:1006B000EAFFE750E926000EEA22EE6AEE6AEE6AE9
:1006C000FD0EDBCFE9FFFE0EDBCFEAFF020EE926CF
:1006D000000EEA22EF501EE0180EE76EF90EDBCF97
:1006E000E9FFFA0EDBCFEAFFE750E926000EEA2227
:1006F000E80EEE5C030EEE58000EEF580BE20FEC26
:1007000001F0FD0EDBCFE6FFFE0EDBCFE6FF8DEC4A
:1007100010F037D0FD0EDBCFE9FFFE0EDBCFEAFF96
:100720000A0EE926000EEA22EF502FE1090EE76ECD
:10073000F90EDBCFE9FFFA0EDBCFEAFFE750E9263F
:10074000000EEA22D880600EEE54090EEE54000E20
:10075000EF541BE30FEC01F0090EE76EF90EDBCF4F
:10076000E9FFFA0EDBCFEAFFE750E926000EEA22A6
:10077000EECFE6FFEECFE6FFEFCFE6FF69EC0EF03F
:10078000E552E552E55271EF08F0FD0EDBCFE9FFCF
:10079000FE0EDBCFEAFF0A0EE926000EEA22EF503A
:1007A00001E0B7D0120EE76EF90EDBCFE9FFFA0ECB
:1007B000DBCFEAFFE750E926000EEA22D880880E58
:1007C000EE54130EEE54000EEF5401E2A2D0FD0ED3
:1007D000DBCFE9FFFE0EDBCFEAFF0D0EE926000EB0
:1007E000EA220E0EE926000EEA22EF5001E191D036
:1007F00012EC01F0FD0EDBCFE9FFFE0EDBCFEAFFCE
:100800000D0EE926000EEA220C0EE926000EEA2261
:10081000EF5019E0FD0EDBCFE9FFFE0EDBCFEAFF64
:10082000040EE926000EEA22EF50E66EFD0EDBCF45
:10083000E9FFFE0EDBCFEAFF030EE926000EEA22F7
:10084000EF50E66E24D0FD0EDBCFE9FFFE0EDBCFCE
:10085000EAFF030EE926000EEA22EFCFDFFFDF50AA
:1008600003E10C0EDF6E05D0DF500C0802E20C0E27
:10087000DF5EFD0EDBCFE9FFFE0EDBCFEAFF040EED
:10088000E926000EEA22EF50E66EDFCFE6FF120EF9
:10089000E76EF90EDBCFE9FFFA0EDBCFEAFFE75098
:1008A000E926000EEA22EECF08F0EECF09F0EFCFF6
:1008B0000AF008C01FF009C020F00AC021F05FEC68
:1008C0002CF01FC004F020C005F021C006F022C0AB
:1008D00007F0246A256A7A0E266E440E276E0EEC07
:1008E0002DF01FC000F020C001F021C002F022C096
:1008F00003F01FC0E6FF20C0E6FF21C0E6FF22C0D4
:10090000E6FF1CEC0CF00B6E060EE15E0B5071EF77
:1009100008F0FD0EDBCFE9FFFE0EDBCFEAFF0A0E8B
:10092000E926000EEA22EF50040A01E16ED1070A1F
:1009300001E12FD1010A01E195D0030A4AE0010A41
:1009400001E0A6D312EC01F0FD0EDBCFE9FFFE0EB5
:10095000DBCFEAFF0D0EE926000EEA220D0EE92696
:10096000000EEA22EF50E66EFD0EDBCFE9FFFE0E31
:10097000DBCFEAFF0D0EE926000EEA220C0EE92677
:10098000000EEA22EF50E66EB1DBE552E552FD0EB5
:10099000DBCFE9FFFE0EDBCFEAFF020EE926000EF9
:1009A000EA22EF5001E17CD3E66A150EE76EF90EFC
:1009B000DBCF00F0FA0EDBCF01F0E7500026000E8F
:1009C000012200C0E6FF01C0E6FF010EE66EE66A06
:1009D000D8D012EC01F0FD0EDBCFE9FFFE0EDBCF2D
:1009E000EAFF0D0EE926000EEA220D0EE926000EA2
:1009F000EA22EF50E66EFD0EDBCFE9FFFE0EDBCF05
:100A0000EAFF0D0EE926000EEA220C0EE926000E82
:100A1000EA22EF50E66EFD0EDBCFE9FFFE0EDBCFE4
:100A2000EAFF040EE926000EEA22EF50E66EFD0E04
:100A3000DBCFE9FFFE0EDBCFEAFF030EE926000E57
:100A4000EA22EF50E66E14EC09F0E552E552E55269
:100A5000E552FD0EDBCFE9FFFE0EDBCFEAFFEF50E4
:100A600048E16CD012EC01F0FD0EDBCFE9FFFE0E89
:100A7000DBCFEAFF0D0EE926000EEA220D0EE92675
:100A8000000EEA22EF50E66EFD0EDBCFE9FFFE0E10
:100A9000DBCFEAFF0D0EE926000EEA220C0EE92656
:100AA000000EEA22EF50E66EFD0EDBCFE9FFFE0EF0
:100AB000DBCFEAFF060EE926000EEA22EF50E66ED3
:100AC000FD0EDBCFE9FFFE0EDBCFEAFF050EE926C8
:100AD000000EEA22EF50E66EA7DBE552E552E55242
:100AE000E552FD0EDBCFE9FFFE0EDBCFEAFFEF5054
:100AF00025E0FD0EDBCFE9FFFE0EDBCFEAFF0D0E9A
:100B0000E926000EEA220F0EE926000EEA22EF5037
:100B1000E66E150EE76EF90EDBCF00F0FA0EDBCFB6
:100B200001F0E7500026000E012200C0E6FF01C0E0
:100B3000E6FFE66AE66A010EE66E24D0FD0EDBCF24
:100B4000E9FFFE0EDBCFEAFF0D0EE926000EEA22DA
:100B50000F0EE926000EEA22EF50E66E150EE76E44
:100B6000F90EDBCF00F0FA0EDBCF01F0E7500026E4
:100B7000000E012200C0E6FF01C0E6FFE66A010E9A
:100B8000E66EE66ADEEC0EF0026E060EE15E0250E4
:100B900087D20FEC01F0090EE76EF90EDBCFE9FF0B
:100BA000FA0EDBCFEAFFE750E926000EEA22600EDC
:100BB000EE5C090EEE58000EEF5815E2090EE76ED6
:100BC000F90EDBCFE9FFFA0EDBCFEAFFE750E926AB
:100BD000000EEA22EECFE6FFEECFE6FFEFCFE6FF14
:100BE000A5EC0DF0E4D1FD0EDBCFE9FFFE0EDBCF6F
:100BF000EAFF0B0EE926000EEA22EECF00F0EFCF5F
:100C000001F0010E0026000EC4D00FEC01F0FD0E25
:100C1000DBCFE9FFFE0EDBCFEAFF0D0EE926000E6B
:100C2000EA220F0EE926000EEA22EF50E66E150EBC
:100C3000E76EF90EDBCF00F0FA0EDBCF01F0E750E4
:100C40000026000E012200C0E6FF01C0E6FFE66AB2
:100C5000010EE66EE66EDEEC0EF0026E060EE15E52
:100C60000250FD0EDBCFE9FFFE0EDBCFEAFF0B0EDD
:100C7000E926000EEA22EECF00F0EFCF01F0100ED1
:100C8000001801E1015001E1B9D1030E001801E1A2
:100C9000015001E18ED1040E001801E1015001E183
:100CA00088D10C0E001801E1015001E182D10E0E35
:100CB000001801E1015001E17CD1005001E1015037
:100CC00001E177D10D0E001801E1015001E171D170
:100CD000010E001801E1015001E16BD10B0E00186B
:100CE00001E1015001E183D0020E001801E1015041
:100CF00052E0080E001801E1015001E1A2D1090EF5
:100D0000001801E1015001E19CD10F0E001801E132
:100D1000015001E196D1060E001801E1015001E1F8
:100D200090D1070E001801E1015001E18AD1050EB2
:100D3000001801E1015001E184D10A0E001801E020
:100D4000A7D1015001E0A4D1FD0EDBCFE9FFFE0EDB
:100D5000DBCFEAFF0D0EE926000EEA22E9CF02F012
:100D6000EACF03F0FD0EDBCFE9FFFE0EDBCFEAFF9B
:100D70000B0EE926000EEA220250EE24E76E035025
:100D8000EE20EA6EE7CFE9FFEF50016AD00F006E68
:100D9000070E012227D0FD0EDBCFE9FFFE0EDBCFD1
:100DA000EAFF0D0EE926000EEA22E9CF02F0EACFB3
:100DB00003F0FD0EDBCFE9FFFE0EDBCFEAFF0B0EEB
:100DC000E926000EEA220250EE24E76E0350EE20E0
:100DD000EA6EE7CFE9FFEF50006E016A170E005E82
:100DE000000E015A00C0E6FF01C0E6FF55D1FD0E1E
:100DF000DBCFE9FFFE0EDBCFEAFF0D0EE926000E8A
:100E0000EA22E9CF00F0EACF01F0FD0EDBCFE9FFE7
:100E1000FE0EDBCFEAFF0B0EE926000EEA220050A1
:100E2000EE24E76E0150EE20EA6EE7CFE9FFEF50C7
:100E300057E1FD0EDBCFE9FFFE0EDBCFEAFF0D0E23
:100E4000E926000EEA22090EE926000EEA22EFCF7B
:100E500000F00A0E016E266E00C021F08BEC3DF012
:100E60001D50E66EFD0EDBCFE9FFFE0EDBCFEAFF85
:100E70000D0EE926000EEA22090EE926000EEA22EE
:100E8000EFCF02F00A0E036E266E02C021F08BEC4B
:100E90003DF02150E66EFD0EDBCFE9FFFE0EDBCF0D
:100EA000EAFF0D0EE926000EEA22080EE926000EE2
:100EB000EA22EFCF04F00A0E056E266E04C021F080
:100EC0008BEC3DF01D50E66EFD0EDBCFE9FFFE0E14
:100ED000DBCFEAFF0D0EE926000EEA22080E56D0FF
:100EE000FD0EDBCFE9FFFE0EDBCFEAFF0D0EE9269C
:100EF000000EEA22080EE926000EEA22EFCF00F0EB
:100F00000A0E016E266E00C021F08BEC3DF01D50E4
:100F1000E66EFD0EDBCFE9FFFE0EDBCFEAFF0D0E26
:100F2000E926000EEA22080EE926000EEA22EFCF9B
:100F300002F00A0E036E266E02C021F08BEC3DF02B
:100F40002150E66EFD0EDBCFE9FFFE0EDBCFEAFFA0
:100F50000D0EE926000EEA22090EE926000EEA220D
:100F6000EFCF04F00A0E056E266E04C021F08BEC64
:100F70003DF01D50E66EFD0EDBCFE9FFFE0EDBCF30
:100F8000EAFF0D0EE926000EEA22090EE926000E00
:100F9000EA22EFCF06F00A0E076E266E06C021F099
:100FA0008BEC3DF02150E66E57EC01F0E552E55236
:100FB00075D0FD0EDBCFE9FFFE0EDBCFEAFF0D0E95
:100FC000E926000EEA22E9CF00F0EACF01F0FD0E9B
:100FD000DBCFE9FFFE0EDBCFEAFF0B0EE926000EAA
:100FE000EA220050EE24E76E0150EE20EA6EE7CFD1
:100FF000E9FFEF504AE045EC02F052D0FD0EDBCFA6
:10100000E9FFFE0EDBCFEAFF0D0EE926000EEA2215
:10101000E9CF00F0EACF01F0FD0EDBCFE9FFFE0ED5
:10102000DBCFEAFF0B0EE926000EEA220050EE2489
:10103000E76E0150EE20EA6EE7CFE9FFEF500A08B5
:1010400024E0FD0EDBCFE9FFFE0EDBCFEAFF0D0E45
:10105000E926000EEA22E9CF00F0EACF01F0FD0E0A
:10106000DBCFE9FFFE0EDBCFEAFF0B0EE926000E19
:10107000EA220050EE24E76E0150EE20EA6EE7CF40
:10108000E9FFEF50E66EE66A07D051EC02F008D0B7
:101090000F0EE66E270EE66E6DEC01F0E552E5529E
:1010A000FB0EDBCFE9FFFC0EDBCFEAFFEE52EFCF0A
:1010B00000F0FD0EDBCFE9FFFE0EDBCFEAFFEE52C4
:1010C000EF50005C0EE0FD0EDBCFE9FFFE0EDBCF44
:1010D000EAFFEE52EF5003E020EC01F002D01DECED
:1010E00001F0E552E552E7CFD9FF1200D9CFE6FF74
:1010F000E1CFD9FF020EE126AAEC33F0DF6E4CEC13
:1011000033F0E76E010EE7CFDBFFFE0EDB502BE086
:101110000A0E006E266E010EDBCF21F08BEC3DF047
:101120001D50E66E0A0E016E266E010EDBCF21F019
:101130008BEC3DF02150E66E0A0E026E266EDFCF7C
:1011400021F08BEC3DF01D50E66E0A0E036E266E0C
:10115000DFCF21F08BEC3DF02150E66E57EC01F033
:10116000E552E55243D0DF50006E016A0C0ED88084
:101170000054000E01541DE3DF50006E016AE85078
:1011800001100BE0010EDB50026E036ADF50640DAC
:10119000F3500224006EF45022D0010EDB50016A9D
:1011A000B00F006E040E012200C0E6FF01C0E6FF92
:1011B0001BD0DF50026E036A0C0E025E000E035A53
:1011C000640E0302F3CF03F00202F3CF02F0F450F7
:1011D0000326010EDB500001F324006E000E0320F5
:1011E000016E00C0E6FFE66E6DEC01F0E552E552DF
:1011F000FE0EDB5007E10C0EDF5C0AE3180EDF5C2D
:1012000004E306D0FD0EDB5003E016EC01F002D043
:101210001AEC01F0020EE15C02E2E16AE552E16ED5
:10122000E552E7CFD9FF1200D9CFE6FFE1CFD9FFD2
:10123000FC0EDB502DE00A0E006E266EFD0EDBCF9D
:1012400021F08BEC3DF01D50E66E0A0E016E266E0D
:10125000FD0EDBCF21F08BEC3DF02150E66E0A0E47
:10126000026E266EFE0EDBCF21F08BEC3DF01D50A2
:10127000E66E0A0E036E266EFE0EDBCF21F08BECBF
:101280003DF02150E66E57EC01F0E552E55246D0B4
:10129000FE0EDB50006E016A0C0ED8800054000E6A
:1012A00001541EE3FE0EDB50016AE85001100CE011
:1012B000FD0EDB50026E036AFE0EDB50640DF35030
:1012C0000224006EF45023D0FD0EDB50016AB00FF3
:1012D000006E040E012200C0E6FF01C0E6FF1CD034
:1012E000FE0EDB50026E036A0C0E025E000E035A05
:1012F000640E0302F3CF03F00202F3CF02F0F450C6
:101300000326FD0EDB500001F324006E000E0320C7
:10131000016E00C0E6FFE66E6DEC01F0E552E552AD
:10132000FC0EDB5011E10C0EF36EFE0EDBCFF4FF72
:10133000F350F45C0FE3180EF36EFE0EDBCFF4FFF8
:10134000F350F45C04E306D0FB0EDB5003E016EC34
:1013500001F002D01AEC01F0E552E7CFD9FF1200FC
:10136000D9CFE6FFE1CFD9FF080EE126FB0EDBCF98
:1013700000F0FC0EDBCF01F0FD0EDBCF02F0FE0E25
:10138000DBCF03F0F70EDBCF04F0F80EDBCF05F078
:10139000F90EDBCF06F0FA0EDBCF07F004C024F025
:1013A00005C025F006C026F007C027F000C01FF0DA
:1013B00001C020F002C021F003C022F0B8EC2EF0F2
:1013C000010A06E0F50EDBCFE6FFF60EDB501DD27C
:1013D000CD0E046ECC0E056E066E3D0E076EF50E3C
:1013E000DBCF0CF00CC021F04EEC2CF01FC008F04D
:1013F00020C009F021C00AF022C00BF01FC024F069
:1014000020C025F021C026F022C027F004C01FF024
:1014100005C020F006C021F007C022F061EC2DF0DD
:101420001FC000F020C001F021C002F022C003F074
:10143000F70EDBCF0DF0F80EDBCF0EF0F90EDBCFA1
:101440000FF0FA0EDBCF10F00DC024F00EC025F027
:101450000FC026F010C027F077EC2CF01FC0DEFF85
:1014600020C0DEFF21C0DEFF22C0DDFFDD52DD52E5
:10147000FB0EDBCF00F0FC0EDBCF01F0FD0EDBCF6F
:1014800002F0FE0EDBCF03F0D9CFE9FFDACFEAFF9F
:10149000EECF04F0EECF05F0EECF06F0EFCF07F081
:1014A00004C024F005C025F006C026F007C027F0D0
:1014B00000C01FF001C020F002C021F003C022F0E4
:1014C000AFEC2EF0010A18E0F60EDBCFE6FF1F6A44
:1014D000206AA00E216E410E226EFB0EDBCF24F09F
:1014E000FC0EDBCF25F0FD0EDBCF26F0FE0EDBCFB2
:1014F00027F061EC2DF086D1FB0EDBCF04F0FC0E63
:10150000DBCF05F0FD0EDBCF06F0FE0EDBCF07F0E4
:10151000D9CFE9FFDACFEAFFEECF08F0EECF09F03E
:10152000EECF0AF0EFCF0BF008C024F009C025F091
:101530000AC026F00BC027F004C01FF005C020F041
:1015400006C021F007C022F077EC2CF01FC000F09D
:1015500020C001F021C002F022C003F0D9CFE9FF82
:10156000DACFEAFFEECF10F0EECF11F0EECF12F0AF
:10157000EFCF13F0F70EDBCF14F0F80EDBCF15F042
:10158000F90EDBCF16F0FA0EDBCF17F014C024F003
:1015900015C025F016C026F017C027F010C01FF0A8
:1015A00011C020F012C021F013C022F077EC2CF013
:1015B0001FC00CF020C00DF021C00EF022C00FF0B3
:1015C0001FC024F020C025F021C026F022C027F043
:1015D00000C01FF001C020F002C021F003C022F0C3
:1015E0000EEC2DF0040E1FC0DBFF050E20C0DBFF4C
:1015F000060E21C0DBFF070E22C0DBFF006A016A76
:10160000A00E026E410E036ED950040FE96EDACFC0
:10161000EAFFEECF1FF0EECF20F0EECF21F0EFCFBC
:1016200022F000C024F001C025F002C026F003C063
:1016300027F061EC2DF022C0EDFF21C0EDFF20C0AE
:10164000EDFF1FC0EFFF006A016A200E026E420E1E
:10165000036ED950040FE96EDACFEAFFEECF1FF028
:10166000EECF20F0EECF21F0EFCF22F000C024F03B
:1016700001C025F002C026F003C027F078EC2CF062
:1016800022C0EDFF21C0EDFF20C0EDFF1FC0EFFF26
:10169000046A056A066A3F0E076EFB0EDBCF0CF08C
:1016A000FC0EDBCF0DF0FD0EDBCF0EF0FE0EDBCF20
:1016B0000FF0D9CFE9FFDACFEAFFEECF10F0EECF8F
:1016C00011F0EECF12F0EFCF13F010C024F011C0E4
:1016D00025F012C026F013C027F00CC01FF00DC07B
:1016E00020F00EC021F00FC022F077EC2CF01FC0CC
:1016F00008F020C009F021C00AF022C00BF01FC082
:1017000024F020C025F021C026F022C027F004C01C
:101710001FF005C020F006C021F007C022F061ECE8
:101720002DF01FC000F020C001F021C002F022C047
:1017300003F0D950040FE96EDACFEAFFEECF1FF0C5
:10174000EECF20F0EECF21F0EFCF22F000C024F05A
:1017500001C025F002C026F003C027F061EC2DF097
:1017600022C0EDFF21C0EDFF20C0EDFF1FC0EFFF45
:101770001F6A206AA00E216E410E226E000EDFCF7E
:1017800024F0010EDBCF25F0020EDBCF26F0030E96
:10179000DBCF27F061EC2DF01FC000F020C001F07E
:1017A00021C002F022C003F0D950040FE96EDACF55
:1017B000EAFFEECF1FF0EECF20F0EECF21F0EFCF1B
:1017C00022F000C024F001C025F002C026F003C0C2
:1017D00027F078EC2CF022C0EDFF21C0EDFF20C0F7
:1017E000EDFF1FC0EFFFF60EDBCFE6FF040EDBCFF1
:1017F0001FF0050EDBCF20F0060EDBCF21F0070E29
:10180000DBCF22F088EC2EF02150E552E724006E69
:101810000A0E016E266E00C021F08BEC3DF01D50CB
:10182000006E080EE15C02E2E16AE552E16E0050F2
:10183000E552E7CFD9FF1200D9CFE6FFE1CFD9FFBC
:10184000270EE126170EDB6A180EDB6AA00EF36E78
:10185000190EF3CFDBFF400EF36E1A0EF3CFDBFF52
:101860003C0EDF6E1B0EDB6A1C0EDB6A800EF36E15
:101870001D0EF3CFDBFF400EF36E1E0EF3CFDBFF2A
:10188000DE52320EDD6E1F0EDB6A200EDB6A400E6A
:10189000F36E210EF3CFDBFF400EF36E220EF3CF7B
:1018A000DBFF280EF36E020EF3CFDBFF230EDB6AA5
:1018B000240EDB6A250EDB6A400EF36E260EF3CF94
:1018C000DBFF1E0EF36E030EF3CFDBFFF90EDB50D2
:1018D00009E0F90EDB04E76E140EE7CFDBFFFA0E2A
:1018E000DB500AD03B0EF36E140EF3CFDBFFFA0E83
:1018F000DB0407E0FA0EDB04E76E150EE7CFDBFF33
:1019000005D0180EF36E150EF3CFDBFF0A0E006E36
:10191000266E150EDBCF21F08BEC3DF0080E21C0BA
:10192000DBFF0A0E006E266EFA0EDBCF21F08BEC89
:101930003DF00C0E21C0DBFF0A0E006E266E150E68
:10194000DBCF21F08BEC3DF0090E1DC0DBFF0A0E52
:10195000006E266EFA0EDBCF21F08BEC3DF00D0E03
:101960001DC0DBFF0A0E006E266E140EDBCF21F0C9
:101970008BEC3DF00A0E21C0DBFF006E266EF90EE7
:10198000DBCF21F08BEC3DF00E0E21C0DBFF0A0E09
:10199000006E266E140EDBCF21F08BEC3DF00B0EAB
:1019A0001DC0DBFF0A0E006E266EF90EDBCF21F0A4
:1019B0008BEC3DF00F0E1DC0DBFF160EDB6A040E34
:1019C000F36E160EDBCFF4FFF350F45C3EE2D95019
:1019D0000C0F066EDACF07F0160EDB500F0106244F
:1019E000E96E000EDA20EA6EEFCF05F0D950080F4D
:1019F000086EDACF09F0160EDB500824E96E000EEF
:101A0000DA20EA6EEF50055C046ED9CF02F0DACF2F
:101A100003F0160EDB50D924E96E000EDA20EA6ED0
:101A2000EF500424E66ED950040F006EDACF01F0B7
:101A3000160EDB500024E96E000EDA20EA6EE55245
:101A4000E750EF6E160EDB2ABAD7160EDB6A040ECD
:101A5000F36E160EDBCFF4FFF350F45C5AE2D9506C
:101A6000040F026EDACF03F0160EDB500F010224D2
:101A7000E96E000EDA20EA6EEF50E66ED950080FDC
:101A8000046EDACF05F0160EDB500424E96E000E6A
:101A9000DA20EA6EEF50E66ED950170F066EDACFF5
:101AA00007F0160EDB50040D0650F324E96EDA50F1
:101AB000F420EA6EEECFE6FFEECFE6FFEECFE6FFD4
:101AC000EFCFE6FFD950FB0FE96EFF0EDA20EA6E8A
:101AD000EECFE6FFEECFE6FFEECFE6FFEFCFE6FF7D
:101AE0003FDC086E0A0EE15E0850E66ED950100F1A
:101AF000006EDACF01F0160EDB500F010024E96E04
:101B0000000EDA20EA6EE552E750EF6E160EDB2A81
:101B10009ED7130EDBCFE6FF120EDBCFE6FF110ED2
:101B2000DBCFE6FF100EDBCFE6FF57EC01F0E5520E
:101B3000E552E552E552270EE15C02E2E16AE55228
:101B4000E16EE552E7CFD9FF1200D9CFE6FFE1CF32
:101B5000D9FFD950FC0FE96EFF0EDA20EA6E580E5D
:101B6000EE5C020EEE58000EEF580DE3D950FC0F5C
:101B7000E96EFF0EDA20EA6E580EEE5E020EEE5AA5
:101B8000000EEE5AE6D7D950FC0FE96EFF0EDA20B0
:101B9000EA6E3C0EEE5C000EEE58000EEF5802E2CC
:101BA000090E77D0D950FC0FE96EFF0EDA20EA6EED
:101BB000780EEE5C000EEE58000EEF5802E2080EB2
:101BC00068D0D950FC0FE96EFF0EDA20EA6EB40E31
:101BD000EE5C000EEE58000EEF5802E2070E59D0F0
:101BE000D950FC0FE96EFF0EDA20EA6EF00EEE5CC3
:101BF000000EEE58000EEF5802E2060E4AD0D95001
:101C0000FC0FE96EFF0EDA20EA6E2C0EEE5C010E80
:101C1000EE58000EEF5802E2050E3BD0D950FC0FF3
:101C2000E96EFF0EDA20EA6E680EEE5C010EEE58E9
:101C3000000EEF5802E2040E2CD0D950FC0FE96ED2
:101C4000FF0EDA20EA6EA40EEE5C010EEE58000ED6
:101C5000EF5802E2030E1DD0D950FC0FE96EFF0EC3
:101C6000DA20EA6EE00EEE5C010EEE58000EEF5840
:101C700002E2020E0ED0D950FC0FE96EFF0EDA2000
:101C8000EA6E1C0EEE5C020EEE58000EEF5806E2F5
:101C9000010EE66EE66EE66EE66E11D0D950FC0FD0
:101CA000E96EFF0EDA20EA6E580EEE5C020EEE5878
:101CB000000EEF580AE2E66AE66AE66AE66A57EC60
:101CC00001F0E552E552E552E552E552E7CFD9FF82
:101CD0001200D9CFE6FFE1CFD9FFD950FC0FE96E52
:101CE000FF0EDA20EA6E200EEE5C030EEE58000EB8
:101CF000EF580DE3D950FC0FE96EFF0EDA20EA6EC3
:101D0000200EEE5E030EEE5A000EEE5AE6D7D950C4
:101D1000FC0FE96EFF0EDA20EA6EC80EEE5C000ED4
:101D2000EE58000EEF5806E2630EE66EE66EE66EC3
:101D3000010E39D0D950FC0FE96EFF0EDA20EA6EA1
:101D4000900EEE5C010EEE58000EEF5807E2630EA7
:101D5000E66EE66E010EE66E630E25D0D950FC0FDE
:101D6000E96EFF0EDA20EA6E580EEE5C020EEE58B7
:101D7000000EEF5806E2630EE66E010EE66E630E8D
:101D800011D0D950FC0FE96EFF0EDA20EA6E200E5A
:101D9000EE5C030EEE58000EEF580CE2010EE66EFC
:101DA000630EE66EE66EE66E57EC01F0E552E55224
:101DB000E552E552E552E7CFD9FF1200D9CFE6FF51
:101DC000E1CFD9FFF90EDBCFE6FF77D8E552E76E1A
:101DD000F90EE7CFDBFFFA0EDBCFE9FFFB0EDBCF1F
:101DE000EAFF0F0EEE5C000EEE58000EEF5829E3EE
:101DF0000001D95105E0200ED85D02E0D82B15D0A6
:101E0000D95105E0200ED85D02E1D96B0ED0D95131
:101E100005E1040ED85D02E0D80707D0D95105E1ED
:101E2000040ED85D02E1010ED96FFA0EDBCFE9FF97
:101E3000FB0EDBCFEAFF0F0EEE5E000EEE5AEE5AFF
:101E4000CAD7FE0EDB5009E0FD0EDB5006E1F90EAD
:101E5000DBCFE6FFDBCFE6FF1AD0FD0EDB500DE057
:101E6000FE0EDB500AE1D8C0E6FFD8C0E6FFF90E4F
:101E7000DBCFE6FFDBCFE6FF0ED0FD0EDB5011E03F
:101E8000FE0EDB500EE0D8C0E6FFD8C0E6FFD8C09B
:101E9000E6FFD8C0E6FF5DEC02F0E552E552E55200
:101EA000E552FC0EDB5005E0D8C0E6FF4CEC01F03B
:101EB000E552E552E7CFD9FF1200D9CFE6FFE1CFD7
:101EC000D9FF020EE126010EDE6EDD6AFE0EDB504A
:101ED000086E096ADECF06F0DDCF07F0200ED8804D
:101EE0000656000E075606C020F007C021F008C0B5
:101EF00025F009C026F021EC2EF01EC004F01FC012
:101F000005F0090E256E266A1EC020F01FC021F0C4
:101F100039EC3DF020C004F021C005F0DE50202453
:101F2000026EDD502120036EDECF0AF0DDCF0BF014
:101F3000170ED8800A56000E0B56090E256E266A1B
:101F40000AC020F00BC021F039EC3DF020C00AF0AF
:101F500021C00BF02050025C006E21500358016E2E
:101F60000050006E020EE15C02E2E16AE552E16EB1
:101F70000050E552E7CFD9FF1200D9CFE6FFE1CFFD
:101F8000D9FF060EE126FC0EDB50DE6EDD6AFD0E8B
:101F9000DB50E66ED950020FE96EDACFEAFFE55268
:101FA000E750EE6EED6AFE0EDB50E66ED950040F80
:101FB000E96EDACFEAFFE552E750EE6EED6A020E07
:101FC000DBCF06F0030EDBCF07F0DE50065C046EBD
:101FD000DD500758056E04C020F0216E040EDBCFE3
:101FE00025F0050EDBCF26F0F4EC2DF01EC002F03C
:101FF0001FC003F02568266A1EC020F01FC021F014
:10200000CEEC2DF020C002F021C003F0DE502024E1
:10201000006EDD502120016E0050006E060EE15C66
:1020200002E2E16AE552E16E0050E552E7CFD9FFE6
:102030001200D9CFE6FFE1CFD9FF040EE126FE0E54
:10204000DB50DE6EDD6AFC0EDB50E66ED950020F0F
:10205000E96EDACFEAFFE552E750EE6EED6A020E66
:10206000DBCF04F0030EDBCF05F0190E0502F3CF32
:1020700005F00402F3CF04F0F4500526FF0ED880DB
:102080000456000E055604C020F005C021F0DECF36
:1020900025F0DDCF26F021EC2EF01EC002F01FC08F
:1020A00003F02568266A1EC020F01FC021F039EC1D
:1020B0003DF020C002F021C003F0190E206E216A0D
:1020C000020EDBCF25F0030EDBCF26F021EC2EF045
:1020D00002501E24006E03501F20016E050ED89082
:1020E00000360136E806FBE12568266A00C020F0CC
:1020F00001C021F039EC3DF020C000F021C001F01A
:102100002050006E040EE15C02E2E16AE552E16EED
:102110000050E552E7CFD9FF1200D9CFE6FFE1CF5B
:10212000D9FFFD0EDBCFE9FFFE0EDBCFEAFF090E84
:10213000E926000EEA22EFCF00F00A0E016E266EAD
:1021400000C021F08BEC3DF01D50E66EFD0EDBCFA4
:10215000E9FFFE0EDBCFEAFF090EE926000EEA22B8
:10216000EFCF02F00A0E036E266E02C021F08BEC58
:102170003DF02150E66EFD0EDBCFE9FFFE0EDBCF1A
:10218000EAFF080EE926000EEA22EFCF04F00A0E5D
:10219000056E266E04C021F08BEC3DF01D50E66EFE
:1021A000FD0EDBCFE9FFFE0EDBCFEAFF080EE926CE
:1021B000000EEA22EFCF06F00A0E076E266E06C06A
:1021C00021F08BEC3DF02150E66E57EC01F0E5522A
:0E21D000E552E552E552E552E7CFD9FF120085
:0221DE00D9CF57
:1021E000E6FFE1CFD9FFFB0EDBCFE9FFFC0EDBCF33
:1021F000EAFF0A0EE926000EEA22EF5003081CE06F
:10220000FB0EDBCFE9FFFC0EDBCFEAFF0A0EE9266F
:10221000000EEA22EF5004080FE00F0EE76EF90EF1
:10222000DBCFE9FFFA0EDBCFEAFFE750E926000E2D
:10223000EA22EE6AEE6AEE6AFD0EDBCFE9FFFE0EE1
:10224000DBCFEAFF0A0EE926000EEA22EFCF00F00C
:10225000FB0EDBCFE9FFFC0EDBCFEAFF0A0EE9261F
:10226000000EEA22EF50005C02E1E9EF16F0FD0EED
:10227000DBCFE9FFFE0EDBCFEAFF0A0EE926000EF8
:10228000EA22EF0474E1FB0EDBCFE9FFFC0EDBCFAB
:10229000EAFF0A0EE926000EEA22EF0468E0FB0ED0
:1022A000DBCFE9FFFC0EDBCFEAFF030EE926000ED1
:1022B000EA22EF50E66EDFEC33F0E552FB0EDBCFA7
:1022C000E9FFFC0EDBCFEAFF040EE926000EEA224E
:1022D000EF50E66E77EC33F0E552FB0EDBCFE9FF13
:1022E000FC0EDBCFEAFF0D0EE926000EEA220F0EF0
:1022F000E926000EEA22EF50E66E5DEC0FF0E552A3
:10230000E66E24EC01F0E552FB0EDBCFE9FFFC0E9C
:10231000DBCFEAFF030EE926000EEA22EF50E66E5D
:10232000FD0EDBCFE9FFFE0EDBCFEAFF030EE92651
:10233000000EEA22E552E750EF6EFB0EDBCFE9FF1D
:10234000FC0EDBCFEAFF040EE926000EEA22EF5076
:10235000E66EFD0EDBCFE9FFFE0EDBCFEAFF040EDB
:10236000E926000EEA22E552E750EF6E4ED0FD0E50
:10237000DBCFE9FFFE0EDBCFEAFF0A0EE926000EF7
:10238000EA22EF0442E0FB0EDBCFE9FFFC0EDBCFDD
:10239000EAFF0A0EE926000EEA22EF0436E1AAEC73
:1023A00033F0E66EFB0EDBCFE9FFFC0EDBCFEAFF7E
:1023B000030EE926000EEA22E552E750EF6E4CECE0
:1023C00033F0E66EFB0EDBCFE9FFFC0EDBCFEAFF5E
:1023D000040EE926000EEA22E552E750EF6E150ED4
:1023E000E76EF90EDBCFE9FFFA0EDBCFEAFFE7502D
:1023F000E926000EEA22EE6AEE6AEE6AFB0EDBCFF9
:10240000E9FFFC0EDBCFEAFFEF6AFD0EDBCFE9FF51
:10241000FE0EDBCFEAFF0A0EE926000EEA22EF509D
:10242000020801E085D0FB0EDBCFE9FFFC0EDBCF1D
:10243000EAFF0A0EE926000EEA22EF50020801E147
:1024400077D0FB0EDBCFE9FFFC0EDBCFEAFF0D0EF2
:10245000E926000EEA220F0EE926000EEA22EF50CE
:10246000E66E5DEC0FF0E552E66E24EC01F0E5520D
:10247000FB0EDBCFE9FFFC0EDBCFEAFF060EE92601
:10248000000EEA22E9CF00F0EACF01F0E9CFE6FF43
:10249000EACFE6FFFB0EDBCFE9FFFC0EDBCFEAFF66
:1024A000050EE926000EEA22E9CF02F0EACF03F09A
:1024B000E9CFE6FFEACFE6FFFB0EDBCFE9FFFC0E3C
:1024C000DBCFEAFF1F0EE926000EEA22E9CF04F077
:1024D000EACF05F0E9CFE6FFEACFE6FFFB0EDBCF60
:1024E000E9FFFC0EDBCFEAFF1E0EE926000EEA2212
:1024F000E9CF06F0EACF07F0E9CFE6FFEACFE6FF43
:10250000FB0EDBCFE9FFFC0EDBCFEAFF0D0EE92669
:10251000000EEA22E9CF08F0EACF09F0E9CFE6FFA2
:10252000EACFE6FF8DEC3AF00A6E0A0EE15E0A5041
:10253000FD0EDBCFE9FFFE0EDBCFEAFF0A0EE92638
:10254000000EEA22EF043CE0FD0EDBCFE9FFFE0EB9
:10255000DBCFEAFF0A0EE926000EEA22EF5002085E
:102560002FE0FB0EDBCFE9FFFC0EDBCFEAFF0A0E0C
:10257000E926000EEA22EF040DE0FB0EDBCFE9FFB7
:10258000FC0EDBCFEAFF0A0EE926000EEA22EF502E
:10259000020816E1150EE76EF90EDBCFE9FFFA0E21
:1025A000DBCFEAFFE750E926000EEA22EE6AEE6A88
:1025B000EE6AFB0EDBCFE9FFFC0EDBCFEAFFEF6A32
:1025C000FD0EDBCFE9FFFE0EDBCFEAFF0A0EE926A8
:1025D000000EEA22EF50030832E0FD0EDBCFE9FFE8
:1025E000FE0EDBCFEAFF0A0EE926000EEA22EF50CC
:1025F000040825E0FB0EDBCFE9FFFC0EDBCFEAFF92
:102600000A0EE926000EEA22EF50030818E10C0E2C
:10261000E76EF90EDBCFE9FFFA0EDBCFEAFFE750FA
:10262000E926000EEA22C30EEE6E010EEE6EEE6A91
:10263000F70EDBCFE9FFF80EDBCFEAFFEF6AFD0E06
:10264000DBCFE9FFFE0EDBCFEAFF0A0EE926000E24
:10265000EA22EFCF00F0FB0EDBCFE9FFFC0EDBCF71
:10266000EAFF0A0EE926000EEA22EF50005C49E07C
:10267000FD0EDBCFE9FFFE0EDBCFEAFF0A0EE926F7
:10268000000EEA22EF5003080DE0FD0EDBCFE9FF5C
:10269000FE0EDBCFEAFF0A0EE926000EEA22EF501B
:1026A00004082FE1FB0EDBCFE9FFFC0EDBCFEAFFD6
:1026B0000A0EE926000EEA22EF5003080DE0FB0E99
:1026C000DBCFE9FFFC0EDBCFEAFF0A0EE926000EA6
:1026D000EA22EF50040815E1150EE76EF90EDBCF84
:1026E000E9FFFA0EDBCFEAFFE750E926000EEA2207
:1026F000EE6AEE6AEE6A0EEC3CF0000902E053EC82
:102700003BF0FD0EDBCFE9FFFE0EDBCFEAFF0A0E4A
:10271000E926000EEA22EFCF00F0FB0EDBCFE9FF47
:10272000FC0EDBCFEAFF0A0EE926000EEA22EF508C
:10273000005C36E0FD0EDBCFE9FFFE0EDBCFEAFFEB
:102740000A0EE926000EEA22EF50030829E1FB0EEB
:10275000DBCFE9FFFC0EDBCFEAFF0A0EE926000E15
:10276000EA22EF5004081CE1150EE76EF90EDBCFEC
:10277000E9FFFA0EDBCFEAFFE750E926000EEA2276
:10278000EE6AEE6AEE6AF70EDBCFE9FFF80EDBCFFA
:10279000EAFFEF6A0EEC3CF0000902E053EC3BF07C
:1027A000FD0EDBCFE9FFFE0EDBCFEAFF0A0EE926C6
:1027B000000EEA22EF50040801E090D0FB0EDBCFC0
:1027C000E9FFFC0EDBCFEAFF0A0EE926000EEA2243
:1027D000EF50040801E182D0FB0EDBCFE9FFFC0ED5
:1027E000DBCFEAFF0D0EE926000EEA22090EE926EC
:1027F000000EEA22EF50E66E6AEC35F0E552FB0E71
:10280000DBCFE9FFFC0EDBCFEAFF0D0EE926000E61
:10281000EA220A0EE926000EEA22EF50E66EE1EC0B
:1028200034F0E552FB0EDBCFE9FFFC0EDBCFEAFF15
:102830000D0EE926000EEA22080EE926000EEA2215
:10284000EFCF00F000C0E6FFFB0EDBCFE6FFFC0E93
:10285000DBCFE6FF96EC28F0E552E552E552E7CFF4
:1028600000F0D880005410E3FB0EDBCFE9FFFC0E34
:10287000DBCFEAFF0D0EE926000EEA22080EE9265C
:10288000000EEA22EF5026D0FB0EDBCFE6FFFC0E57
:10289000DBCFE6FF96EC28F0E552E552E66EFB0E44
:1028A000DBCFE9FFFC0EDBCFEAFF0D0EE926000EC1
:1028B000EA22080EE926000EEA22E552E750EF6E02
:1028C000FB0EDBCFE6FFFC0EDBCFE6FF96EC28F03D
:1028D000E552E552E66E73EC34F0E552FD0EDBCFC7
:1028E000E9FFFE0EDBCFEAFF0A0EE926000EEA2220
:1028F000EF5003080EE0FD0EDBCFE9FFFE0EDBCF4D
:10290000EAFF0A0EE926000EEA22EF50040801E071
:1029100038D1FB0EDBCFE9FFFC0EDBCFEAFF0A0E5E
:10292000E926000EEA22EF50030801E12AD1FB0E4E
:10293000DBCFE9FFFC0EDBCFEAFF0A0EE926000E33
:10294000EA22EF50040801E11CD1FB0EDBCFE6FFC9
:10295000FC0EDBCFE6FF7EEC1AF0E552E552FB0EF3
:10296000DBCFE9FFFC0EDBCFEAFF0D0EE926000E00
:10297000EA22090EE926000EEA22EF50E66E6AEC22
:1029800035F0E552FB0EDBCFE9FFFC0EDBCFEAFFB3
:102990000D0EE926000EEA220A0EE926000EEA22B2
:1029A000EF50E66EE1EC34F0E552FB0EDBCFE9FFD1
:1029B000FC0EDBCFEAFF0D0EE926000EEA22080E20
:1029C000E926000EEA22EFCF00F000C0E6FFFB0E82
:1029D000DBCFE6FFFC0EDBCFE6FF96EC28F0E552FE
:1029E000E552E552E7CF00F0D880005410E3FB0E2B
:1029F000DBCFE9FFFC0EDBCFEAFF0D0EE926000E70
:102A0000EA22080EE926000EEA22EF5026D0FB0E3D
:102A1000DBCFE6FFFC0EDBCFE6FF96EC28F0E552BD
:102A2000E552E66EFB0EDBCFE9FFFC0EDBCFEAFFE3
:102A30000D0EE926000EEA22080EE926000EEA2213
:102A4000E552E750EF6EFB0EDBCFE6FFFC0EDBCF6F
:102A5000E6FF96EC28F0E552E552E66E73EC34F0B2
:102A6000E552FB0EDBCFE9FFFC0EDBCFEAFF0D0EDC
:102A7000E926000EEA220F0EE926000EEA22EF50A8
:102A8000E66E5DEC0FF0E552E66E24EC01F0E552E7
:102A900012EC01F053EC3BF0150EE66E60EC3BF0EF
:102AA000E552FB0EDBCFE9FFFC0EDBCFEAFF060EA3
:102AB000E926000EEA22E9CF00F0EACF01F0E9CFE3
:102AC000E6FFEACFE6FFFB0EDBCFE9FFFC0EDBCF34
:102AD000EAFF050EE926000EEA22E9CF02F0EACF6E
:102AE00003F0E9CFE6FFEACFE6FFFB0EDBCFE9FF1D
:102AF000FC0EDBCFEAFF1F0EE926000EEA22E9CF2B
:102B000004F0EACF05F0E9CFE6FFEACFE6FFFB0EDF
:102B1000DBCFE9FFFC0EDBCFEAFF1E0EE926000E3D
:102B2000EA22E9CF06F0EACF07F0E9CFE6FFEACFE5
:102B3000E6FFFB0EDBCFE9FFFC0EDBCFEAFF0D0E5D
:102B4000E926000EEA22E9CF08F0EACF09F0E9CF42
:102B5000E6FFEACFE6FF8DEC3AF00A6E0A0EE15E80
:102B60000A50090EE76EF90EDBCFE9FFFA0EDBCF54
:102B7000EAFFE750E926000EEA22EE6AEE6AEE6A04
:102B800077D0FD0EDBCFE9FFFE0EDBCFEAFF0A0EAA
:102B9000E926000EEA22EF5003086AE0FD0EDBCFC3
:102BA000E9FFFE0EDBCFEAFF0A0EE926000EEA225D
:102BB000EF5004085DE0FB0EDBCFE9FFFC0EDBCF3E
:102BC000EAFF0A0EE926000EEA22EF5003080DE0A4
:102BD000FB0EDBCFE9FFFC0EDBCFEAFF0A0EE92696
:102BE000000EEA22EF50040843E13FEC35F0E66EB8
:102BF000FB0EDBCFE9FFFC0EDBCFEAFF0D0EE92673
:102C0000000EEA22090EE926000EEA22E552E750FC
:102C1000EF6EA6EC34F0E66EFB0EDBCFE9FFFC0EA8
:102C2000DBCFEAFF0D0EE926000EEA22080EE926A8
:102C3000000EEA22E552E750EF6E14EC35F0E66E36
:102C4000FB0EDBCFE9FFFC0EDBCFEAFF0D0EE92622
:102C5000000EEA220A0EE926000EEA22E552E750AB
:102C6000EF6E0FEC01F0200EE66E24EC01F0E55261
:102C7000FD0EDBCFE9FFFE0EDBCFEAFF0A0EE926F1
:102C8000000EEA22EF5046E1FB0EDBCFE9FFFC0E1F
:102C9000DBCFEAFF0A0EE926000EEA22EF50030816
:102CA00039E153EC3BF0160EE66E60EC3BF0E5527A
:102CB000FB0EDBCFE9FFFC0EDBCFEAFF0B0EEB6A6E
:102CC0000C0EEB6AFD0EDBCFE9FFFE0EDBCFEAFF59
:102CD0000B0EEB6A0C0EEB6A060EE76EF90EDBCFFD
:102CE000E9FFFA0EDBCFEAFFE750E926000EEA2201
:102CF000EE6AEE6AEE6A090EE76EF90EDBCFE9FFC7
:102D0000FA0EDBCFEAFFE750E926000EEA22EE6A70
:102D1000EE6AEE6AFD0EDBCFE9FFFE0EDBCFEAFFC7
:102D20000A0EE926000EEA22EF50030812E0FB0E1D
:102D3000DBCFE9FFFC0EDBCFEAFF0A0EE926000E2F
:102D4000EA22EF50030805E1200EE66E24EC01F0C4
:102D5000E552FB0EDBCFE9FFFC0EDBCFEAFF0A0EEC
:102D6000E926000EEA22EF040DE0FB0EDBCFE9FFBF
:102D7000FC0EDBCFEAFF0A0EE926000EEA22EF5036
:102D8000020805E1200EE66E24EC01F0E552FD0E8E
:102D9000DBCFE9FFFE0EDBCFEAFF0A0EE926000ECD
:102DA000EA22EF50040815E1FB0EDBCFE9FFFC0E31
:102DB000DBCFEAFF0A0EE926000EEA22EF500308F5
:102DC00008E1F70EDBCFE9FFF80EDBCFEAFF010EDB
:102DD000EF6EE552E7CFD9FF1200D9CFE6FFE1CF82
:102DE000D9FF020EE126AAEC33F0DF6E4CEC33F093
:102DF000E76E010EE7CFDBFFFD0EDBCFE9FFFE0E36
:102E0000DBCFEAFF0A0EE926000EEA22EF500308A4
:102E10000DE0FD0EDBCFE9FFFE0EDBCFEAFF0A0E71
:102E2000E926000EEA22EF5004081FE10F0EE76EBC
:102E3000FB0EDBCFE9FFFC0EDBCFEAFFE750E92614
:102E4000000EEA22D880200EEE544E0EEE54000EF4
:102E5000EF540BE2FD0EDBCFE9FFFE0EDBCFEAFF06
:102E60000A0EE926000EEA22EF6AFD0EDBCFE9FF2B
:102E7000FE0EDBCFEAFF020EE926000EEA22EF503B
:102E800003084DE1FD0EDBCFE9FFFE0EDBCFEAFFCD
:102E9000060EE926000EEA22EF50046E056AFD0ECA
:102EA000DBCFE9FFFE0EDBCFEAFF050EE926000EC1
:102EB000EA22EF503C0DF3500424026EF45005203A
:102EC000036E02C0E6FFE66E010EDB50086E096A73
:102ED000DF503C0DF3500824066EF4500920076EB5
:102EE00006C0E6FFE66E39EC2BF0E552E552E552FE
:102EF000E552F3CF00F0F4CF01F02D0EF35C000E9D
:102F0000F4580DE353EC3BF0FD0EDBCFE9FFFE0E72
:102F1000DBCFEAFF020EE926000EEA22EF6A020E7C
:102F2000E15C02E2E16AE552E16EE552E7CFD9FFEA
:102F30001200D9CFE6FFE1CFD9FFE652FD0EDBCF7D
:102F4000E9FFFE0EDBCFEAFF0A0EE926000EEA22B9
:102F5000EF50030857E10C0EE76EF90EDBCFE9FFE7
:102F6000FA0EDBCFEAFFE750E926000EEA22D8800E
:102F7000C20EEE54010EEE54000EEF541AE2F70E9C
:102F8000DBCFE9FFF80EDBCFEAFFEF5012E10EECEA
:102F90003CF0000901E0F0D1FD0EDBCFE9FFFE0EB1
:102FA000DBCFEAFF0B0EE926000EEA22EF50E66EB9
:102FB000D8D1FB0EDBCFE9FFFC0EDBCFEAFF0B0E17
:102FC000E926000EEA22EECF00F0EFCF01F0FD0E71
:102FD000DBCFE9FFFE0EDBCFEAFF0B0EE926000E8A
:102FE000EA22EECF02F0EFCF03F00250001802E128
:102FF0000350011801E1C0D10EEC3CF0000901E1E1
:103000008DD08AD0FD0EDBCFE9FFFE0EDBCFEAFFCD
:103010000A0EE926000EEA22EF50040801E0ACD1C6
:10302000FD0EDBCFE9FFFE0EDBCFEAFF0B0EE9263C
:10303000000EEA22E9CF00F0EACF01F0E9CFE6FF87
:10304000EACFE6FF73EC2BF0E552E552000901E10F
:1030500093D1FB0EDBCFE9FFFC0EDBCFEAFF0D0EB9
:10306000E926000EEA22E9CF01F0EACF02F0FD0ED8
:10307000DBCFE9FFFE0EDBCFEAFF0B0EE926000EE9
:10308000EA220150EE24E76E0250EE20EA6EE7CF0E
:10309000E9FFEFCF00F0FD0EDBCFE9FFFE0EDBCF47
:1030A000EAFF0D0EE926000EEA22E9CF03F0EACF8F
:1030B00004F0FD0EDBCFE9FFFE0EDBCFEAFF0B0EC7
:1030C000E926000EEA220350EE24E76E0450EE20BB
:1030D000EA6EE7CFE9FFEF50005C1AE1FB0EDBCFB1
:1030E000E9FFFC0EDBCFEAFF0A0EE926000EEA221A
:1030F000EF50030839E1FD0EDBCFE9FFFE0EDBCF19
:10310000EAFF0A0EE926000EEA22EF5004082CE13D
:103110000EEC3CF0000902E053EC3BF00C0EE76EC5
:10312000F90EDBCFE9FFFA0EDBCFEAFFE750E92625
:10313000000EEA22EE6AEE6AEE6AF70EDBCFE9FFD6
:10314000F80EDBCFEAFFEF6A0F0EE76EF90EDBCF6A
:10315000E9FFFA0EDBCFEAFFE750E926000EEA228C
:10316000EE6AEE6AEE6A08D10C0EE76EF90EDBCF5E
:10317000E9FFFA0EDBCFEAFFE750E926000EEA226C
:10318000D880C20EEE54010EEE54000EEF5401E34F
:10319000F3D0F70EDBCFE9FFF80EDBCFEAFFEF50FD
:1031A00001E0EAD00EEC3CF0000901E0E5D0DF6878
:1031B000FD0EDBCFE9FFFE0EDBCFEAFF0B0EE926AB
:1031C000000EEA22EECF00F0EFCF01F00B0E001858
:1031D00001E1015001E19DD0100E001801E1015004
:1031E00072E0020E001801E101504AE0005001E1D6
:1031F000015020E0030E001801E101501BE0040E15
:10320000001801E1015016E00C0E001801E1015018
:1032100011E00D0E001801E101500CE00E0E001837
:1032200001E1015007E0010E001801E098D00150C3
:1032300001E095D0FD0EDBCFE9FFFE0EDBCFEAFF0C
:103240000D0EE926000EEA22E9CF00F0EACF01F0E8
:10325000FD0EDBCFE9FFFE0EDBCFEAFF0B0EE9260A
:10326000000EEA220050EE24E76E0150EE20EA6ED6
:10327000E7CFE9FFEF5002E0130E49D0140E47D01C
:10328000FD0EDBCFE9FFFE0EDBCFEAFF0D0EE926D8
:10329000000EEA22E9CF00F0EACF01F0FD0EDBCF0D
:1032A000E9FFFE0EDBCFEAFF0B0EE926000EEA2255
:1032B0000050EE24E76E0150EE20EA6EE7CFE9FF02
:1032C000EFCFDFFF4CD0FD0EDBCFE9FFFE0EDBCFF3
:1032D000EAFF0D0EE926000EEA22E9CF00F0EACF60
:1032E00001F0FD0EDBCFE9FFFE0EDBCFEAFF0B0E98
:1032F000E926000EEA220050EE24E76E0150EE208F
:10330000EA6EE7CFE9FFEF500B0836E1140EDF6EEF
:1033100026D0FD0EDBCFE9FFFE0EDBCFEAFF0D0E60
:10332000E926000EEA22E9CF00F0EACF01F0FD0E17
:10333000DBCFE9FFFE0EDBCFEAFF0B0EE926000E26
:10334000EA220050EE24E76E0150EE20EA6EE7CF4D
:10335000E9FFEF0402E1120E01D0110EDF6EDFCFA4
:10336000E6FF60EC3BF0E552F70EDBCFE9FFF80E2D
:10337000DBCFEAFF010EEF6EE552E552E7CFD9FF52
:103380001200D9CFE6FFE1CFD9FFFD0EDBCFE9FF79
:10339000FE0EDBCFEAFF020EE926000EEA22EF5016
:1033A000030801E0A7D0FD0EDBCFE9FFFE0EDBCF67
:1033B000EAFF0D0EE926000EEA22040EE926000EB1
:1033C000EA22EF5001E196D0FD0EDBCFE9FFFE0EC1
:1033D000DBCFEAFF0D0EE926000EEA22050EE926F4
:1033E000000EEA22EFCF00F0016A026AE80E246EB6
:1033F000030E256E266A00C01FF001C020F002C037
:1034000021F03FEC2EF01CC000F01DC001F01EC0EA
:1034100002F0030EE76EFB0EDBCFE9FFFC0EDBCF05
:10342000EAFFE750E926000EEA22EE501C5CEE505F
:103430001D58EE501E5845E2FD0EDBCFE9FFFE0E93
:10344000DBCFEAFF0D0EE926000EEA22050EE92683
:10345000000EEA22EFCF03F0046A056AE80E246E3C
:10346000030E256E266A03C01FF004C020F005C0BD
:1034700021F03FEC2EF01CC003F01DC004F01EC074
:1034800005F0600E0326EA0E0422000E0522030E4C
:10349000E76EFB0EDBCFE9FFFC0EDBCFEAFFE75068
:1034A000E926000EEA22EE50035CEE500458EE507E
:1034B000055807E30EEC3CF000091CE053EC3BF030
:1034C00019D00EEC3CF0000915E1FD0EDBCFE9FF51
:1034D000FE0EDBCFEAFF0D0EE926000EEA22020EF9
:1034E000E926000EEA22EF50E66E60EC3BF0E55272
:1034F0005BEC3BF0E552E7CFD9FF1200D9CFE6FFF6
:10350000E1CFD9FF020EE126FD0EDBCFE9FFFE0E73
:10351000DBCFEAFF0D0EE926000EEA22010EE926B6
:10352000000EEA22EF5044E1FD0EDBCFE9FFFE0E74
:10353000DBCFEAFF0D0EE926000EEA220B0EE9268C
:10354000000EEA22EF5013E03FEC35F0E66EFD0E80
:10355000DBCFE9FFFE0EDBCFEAFF080EE926000E07
:10356000EA22E552E750EF6EA6EC34F012D0A6EC5A
:1035700034F0E66EFD0EDBCFE9FFFE0EDBCFEAFF97
:10358000080EE926000EEA22E552E750EF6E3FEC06
:1035900035F0E66EFD0EDBCFE9FFFE0EDBCFEAFF76
:1035A000090EE926000EEA22E552E750EF6E57D0E9
:1035B000D6EC3CF0F3CF00F0F4CF01F04B0E256ECB
:1035C0001D0E266EF3CF20F0F4CF21F0CEEC2DF0BF
:1035D0001CC000F01DC001F0C40E0026090E01221F
:1035E00000C0DEFF01C0DDFFDECF00F0DDCF01F067
:1035F000640E256E266A00C020F001C021F039EC6F
:103600003DF020C000F021C001F0640E256E266A56
:1036100039EC3DF0FD0EDBCFE9FFFE0EDBCFEAFF1C
:10362000080EE926000EEA221CC0EFFFDECF00F0F4
:10363000DDCF01F0640E256E266A00C020F001C0C7
:1036400021F039EC3DF0FD0EDBCFE9FFFE0EDBCFC4
:10365000EAFF090EE926000EEA221CC0EFFF020E67
:10366000E15C02E2E16AE552E16EE552E7CFD9FFA3
:103670001200D9CFE6FFE1CFD9FF020EE126B4EC6C
:1036800038F01FC000F020C001F021C002F0FD0E94
:10369000DBCFE9FFFE0EDBCFEAFF1FC0EEFF01C06C
:1036A000EEFF02C0EEFFC2EC38F0010EDE6EDD6A06
:1036B000DECF00F0DDCF01F00A0E005C000E0158F5
:1036C00056E2DECF04F0DDCF05F0030E0502F3CFA6
:1036D00005F00402F3CF04F0F4500526FD0EDB5094
:1036E000F324E96EFE0EDB500520EA6EEECF00F00B
:1036F000EECF01F0EFCF02F0036A0334000E03189F
:1037000009E6D880000E0054240E0154F40E025431
:10371000000E035427E3FD0EDBCFE9FFFE0EDBCFE7
:10372000EAFFEECF02F0EECF03F0EFCF04F0DECFF2
:1037300000F0DDCF01F0030E0102F3CF01F0000233
:10374000F3CF00F0F4500126FD0EDB50F324E96EB8
:10375000FE0EDB500120EA6E0250EE260350EE22F0
:103760000450EE22DF2A010EA3E3DB2AA1D7020ECA
:10377000E15C02E2E16AE552E16EE552E7CFD9FF92
:103780001200D9CFE6FFE1CFD9FF020EE126DE6AB3
:10379000DD6ADECF00F0DDCF01F00A0E005C000E26
:1037A00001581BE2DECF00F0DDCF01F0030E010275
:1037B000F3CF01F00002F4500126FD0EDB50F3249C
:1037C000E96EFE0EDB500120EA6EEE6AEE6AEE6AEA
:1037D000DF2A010EDEE3DB2ADCD7090EE76EFD0EE1
:1037E000DBCFE9FFFE0EDBCFEAFFE750E926000E54
:1037F000EA22EE6A240EEE6EF40EEE6E0C0EE76E0A
:10380000FD0EDBCFE9FFFE0EDBCFEAFFE750E92636
:10381000000EEA22EE6A240EEE6EF40EEE6E180E24
:10382000E76EFD0EDBCFE9FFFE0EDBCFEAFFE750D0
:10383000E926000EEA22EE6A240EEE6EF40EEE6E1B
:103840001B0EE76EFD0EDBCFE9FFFE0EDBCFEAFFBE
:10385000E750E926000EEA22EE6A240EEE6EF40E20
:10386000EE6EC2EC38F0020EE15C02E2E16AE55273
:10387000E16EE552E7CFD9FF1200D9CFE6FFE1CFE5
:10388000D9FFFD0EDBCF20F0FE0EDBCF21F0090EBD
:10389000201801E121503DE0080E201801E12150DF
:1038A00034E0060E201801E121502BE0050E20180F
:1038B00001E1215022E0040E201801E1215019E01D
:1038C000030E201801E1215010E0020E201801E142
:1038D000215009E0010E201822E1215020E1900E34
:1038E0001F6E5F0E19D0C40E01D0600E1F6E090E40
:1038F00013D0C20E1F6E010E0FD0200E1F6E4E0E83
:103900000BD0880E1F6E130E07D0E80E1F6E030E2D
:1039100003D0B80E1F6E0B0E206E216A05D01F6AF1
:10392000240E206EF40E216EE552E7CFD9FF12006F
:10393000D9CFE6FFE1CFD9FFE65256EC38F0DF6E83
:10394000DF500FE01B0EE76EFB0EDBCFE9FFFC0E36
:10395000DBCFEAFFE750E926000EEA22EE6AEE6AC4
:10396000EE6AFD0EDBCFE9FFFE0EDBCFEAFF0A0EAB
:10397000E926000EEA22EF5003080DE0FD0EDBCF32
:10398000E9FFFE0EDBCFEAFF0A0EE926000EEA226F
:10399000EF50040811E1DF500FE00F0EE76EFB0E51
:1039A000DBCFE9FFFC0EDBCFEAFFE750E926000E94
:1039B000EA22EE6AEE6AEE6AFD0EDBCFE9FFFE0E4A
:1039C000DBCFEAFF020EE926000EEA22EF5001E00B
:1039D0001AD3FD0EDBCFE9FFFE0EDBCFEAFF0A0EA6
:1039E000E926000EEA22EF50020801E090D0FD0E19
:1039F000DBCFE9FFFE0EDBCFEAFFEF5042E0DF5006
:103A0000010A22E0010A01E1FED2FF0A01E0FBD235
:103A1000FD0EDBCFE9FFFE0EDBCFEAFF050EE92648
:103A2000000EEA22EF5008E0FD0EDBCFE9FFFE0EAC
:103A3000DBCFEAFF050E9CD0FD0EDBCFE9FFFE0ECB
:103A4000DBCFEAFF050EA0D0FD0EDBCFE9FFFE0EB7
:103A5000DBCFEAFF050EE926000EEA22EF50170839
:103A600008E0FD0EDBCFE9FFFE0EDBCFEAFF050E1F
:103A7000A4D0FD0EDBCFE9FFFE0EDBCFEAFF050E83
:103A8000A8D0DF50010A26E0010A01E1BCD2FF0AFA
:103A900001E0B9D2FD0EDBCFE9FFFE0EDBCFEAFF7E
:103AA000060EE926000EEA22EF5008E0FD0EDBCFFD
:103AB000E9FFFE0EDBCFEAFF060E5AD0FD0EDBCF8C
:103AC000E9FFFE0EDBCFEAFF060EE926000EEA2232
:103AD0003B0E98D2FD0EDBCFE9FFFE0EDBCFEAFFF7
:103AE000060EE926000EEA22EF503B0808E0FD0E24
:103AF000DBCFE9FFFE0EDBCFEAFF060E5ED0FD0E48
:103B0000DBCFE9FFFE0EDBCFEAFF060E62D0FD0E33
:103B1000DBCFE9FFFE0EDBCFEAFF0A0EE926000E3F
:103B2000EA22EF0401E0B1D0FD0EDBCFE9FFFE0E8B
:103B3000DBCFEAFFEF5052E0DF50010A2AE0010A32
:103B400001E161D2FF0A01E05ED2FD0EDBCFE9FFA9
:103B5000FE0EDBCFEAFF030EE926000EEA22EF504D
:103B60000CE0FD0EDBCFE9FFFE0EDBCFEAFF030E1C
:103B7000E926000EEA22EF0646D2FD0EDBCFE9FF72
:103B8000FE0EDBCFEAFF030EE926000EEA22170E37
:103B900039D2FD0EDBCFE9FFFE0EDBCFEAFF030ECD
:103BA000E926000EEA22EF5017080CE0FD0EDBCFED
:103BB000E9FFFE0EDBCFEAFF030EE926000EEA2244
:103BC000EF2A21D2FD0EDBCFE9FFFE0EDBCFEAFFAD
:103BD000030EE926000EEA22EF6A15D2DF50010A31
:103BE0002BE0010A01E10FD2FF0A01E00CD2FD0E29
:103BF000DBCFE9FFFE0EDBCFEAFF040EE926000E65
:103C0000EA22EF500CE0FD0EDBCFE9FFFE0EDBCF2A
:103C1000EAFF040EE926000EEA22EF0631D0FD0E7F
:103C2000DBCFE9FFFE0EDBCFEAFF040EE926000E34
:103C3000EA223B0EEF6E24D0FD0EDBCFE9FFFE0E35
:103C4000DBCFEAFF040EE926000EEA22EF503B0824
:103C50000CE0FD0EDBCFE9FFFE0EDBCFEAFF040E2A
:103C6000E926000EEA22EF2A0BD0FD0EDBCFE9FF9A
:103C7000FE0EDBCFEAFF040EE926000EEA22EF6A11
:103C8000E66A19EC33F0E552BED1FD0EDBCFE9FF59
:103C9000FE0EDBCFEAFF0A0EE926000EEA22EF5005
:103CA000030855E1FF0EDF5C28E1FD0EDBCFE9FFE5
:103CB000FE0EDBCFEAFF0B0EE926000EEA22EE50E5
:103CC000ED100DE0FD0EDBCFE9FFFE0EDBCFEAFFCE
:103CD0000B0EE926000EEA22EE06EF5A94D1FD0EF5
:103CE000DBCFE9FFFE0EDBCFEAFF0B0EE926000E6D
:103CF000EA22100EEE6EED6A86D1DF0401E083D178
:103D0000FD0EDBCFE9FFFE0EDBCFEAFF0B0EE9264F
:103D1000000EEA22100EEE1801E1ED500DE0FD0E4E
:103D2000DBCFE9FFFE0EDBCFEAFF0B0EE926000E2C
:103D3000EA22EE2AEF2267D1FD0EDBCFE9FFFE0E6D
:103D4000DBCFEAFF0B0EEB6A0C0EEB6A5CD1FD0ECB
:103D5000DBCFE9FFFE0EDBCFEAFF0A0EE926000EFD
:103D6000EA22EF50040801E04ED1FF0EDF5C01E0D3
:103D700090D0FD0EDBCFE9FFFE0EDBCFEAFF0D0E8C
:103D8000E926000EEA22E9CF01F0EACF02F0FD0EAB
:103D9000DBCFE9FFFE0EDBCFEAFF0B0EE926000EBC
:103DA000EA220150EE24E76E0250EE20EA6EE7CFE1
:103DB000E9FFEFCF00F000C0E6FFFD0EDBCFE9FF2B
:103DC000FE0EDBCFEAFF0B0EE926000EEA22EECF55
:103DD000E6FFEFCFE6FFFD0EDBCFE6FFFE0EDBCF0B
:103DE000E6FFC3EC27F0E552E552E552E552E55215
:103DF000E7CF00F0005C36E0FD0EDBCFE9FFFE0E02
:103E0000DBCFEAFF0B0EE926000EEA22EECFE6FF3B
:103E1000EFCFE6FF2FEC28F0E552E552026EFD0EE3
:103E2000DBCFE9FFFE0EDBCFEAFF0D0EE926000E29
:103E3000EA22E9CF00F0EACF01F0FD0EDBCFE9FF87
:103E4000FE0EDBCFEAFF0B0EE926000EEA22005041
:103E5000EE24E76E0150EE20EA6EE7CFE9FF025054
:103E6000EF5ED1D0FD0EDBCFE9FFFE0EDBCFEAFF28
:103E70000B0EE926000EEA22EECFE6FFEFCFE6FFBB
:103E8000FD0EDBCFE6FFFE0EDBCFE6FF4AEC27F0B0
:103E900092D0DF0401E0B7D0FD0EDBCFE9FFFE0ECC
:103EA000DBCFEAFF0D0EE926000EEA22E9CF01F092
:103EB000EACF02F0FD0EDBCFE9FFFE0EDBCFEAFF1B
:103EC0000B0EE926000EEA220150EE24E76E0250A6
:103ED000EE20EA6EE7CFE9FFEFCF00F000C0E6FF8B
:103EE000FD0EDBCFE9FFFE0EDBCFEAFF0B0EE9266E
:103EF000000EEA22EECFE6FFEFCFE6FFFD0EDBCFAE
:103F0000E6FFFE0EDBCFE6FF4AEC27F0E552E55276
:103F1000E552E552E552E7CF00F0005C36E0FD0ED9
:103F2000DBCFE9FFFE0EDBCFEAFF0B0EE926000E2A
:103F3000EA22EECFE6FFEFCFE6FF2FEC28F0E552C6
:103F4000E552026EFD0EDBCFE9FFFE0EDBCFEAFF8E
:103F50000D0EE926000EEA22E9CF00F0EACF01F0CB
:103F6000FD0EDBCFE9FFFE0EDBCFEAFF0B0EE926ED
:103F7000000EEA220050EE24E76E0150EE20EA6EB9
:103F8000E7CFE9FF0250EF263ED0FD0EDBCFE9FF81
:103F9000FE0EDBCFEAFF0B0EE926000EEA22EECF83
:103FA000E6FFEFCFE6FFFD0EDBCFE6FFFE0EDBCF39
:103FB000E6FFC3EC27F0E552E552E552E552E66E26
:103FC000FD0EDBCFE9FFFE0EDBCFEAFF0D0EE9268B
:103FD000000EEA22E9CF00F0EACF01F0FD0EDBCFC0
:103FE000E9FFFE0EDBCFEAFF0B0EE926000EEA2208
:103FF0000050EE24E76E0150EE20EA6EE7CFE9FFB5
:10400000E552E750EF6EE552E552E7CFD9FF1200D7
:10401000D9CFE6FFE1CFD9FF020EE1268150020B96
:10402000020A01E0010EE76E010EE7CFDBFF8150CF
:10403000010B010ADF6EDF5003E1010EDB500FE0E0
:104040001B0EE76EFB0EDBCFE9FFFC0EDBCFEAFFBA
:10405000E750E926000EEA22EE6AEE6AEE6AFD0EED
:10406000DBCFE9FFFE0EDBCFEAFF020EE926000EF2
:10407000EA22EF5003080CE1FD0EDBCFE9FFFE0E54
:10408000DBCFEAFF0D0EE926000EEA22EF500CE12D
:10409000FD0EDBCFE9FFFE0EDBCFEAFF020EE926C5
:1040A000000EEA22EF0415E1DF5003E1010EDB50C0
:1040B00010E0180EE76EFB0EDBCFE9FFFC0EDBCF46
:1040C000EAFFE750E926000EEA22EE6AEE6AEE6A9F
:1040D00070D0FD0EDBCFE9FFFE0EDBCFEAFF020E54
:1040E000E926000EEA22EF50030863E0FD0EDBCF65
:1040F000E9FFFE0EDBCFEAFF020EE926000EEA2200
:10410000EF50020856E0FD0EDBCFE9FFFE0EDBCFDD
:10411000EAFF0A0EE926000EEA22EF50030839E012
:10412000FD0EDBCFE9FFFE0EDBCFEAFF0A0EE9262C
:10413000000EEA22EF5004082CE0010EDB040CE133
:10414000FD0EDBCFE9FFFE0EDBCFEAFF0A0EE9260C
:10415000000EEA22010E0DD0DF040DE1FD0EDBCFD3
:10416000E9FFFE0EDBCFEAFF0A0EE926000EEA2287
:10417000020EEF6E1ED0FD0EDBCFE9FFFE0EDBCF91
:10418000EAFF0A0EE926000EEA22EF50030811E0CA
:1041900005D0010EDB0402E0DF040BE1FD0EDBCFF6
:1041A000E9FFFE0EDBCFEAFF0A0EE926000EEA2247
:1041B000EF6A020EE15C02E2E16AE552E16EE5526D
:1041C000E7CFD9FF1200D9CFE6FFE1CFD9FFE65202
:1041D00033EC38F0DF6EDF500FE01B0EE76EFB0EA6
:1041E000DBCFE9FFFC0EDBCFEAFFE750E926000E4C
:1041F000EA22EE6AEE6AEE6ADF5028E0FD0EDBCFBF
:10420000E9FFFE0EDBCFEAFF020EE926000EEA22EE
:10421000EF041CE1FD0EDBCFE9FFFE0EDBCFEAFF72
:104220000D0EE926000EEA22EF5010E0180EE76EA0
:10423000FB0EDBCFE9FFFC0EDBCFEAFFE750E92600
:10424000000EEA22EE6AEE6AEE6AD0D1DF0401E0E7
:1042500008D1FD0EDBCFE9FFFE0EDBCFEAFF020E39
:10426000E926000EEA22EF50030801E0FAD0FD0E25
:10427000DBCFE9FFFE0EDBCFEAFF070EE926000EDB
:10428000EA22EFCF00F0FD0EDBCFE9FFFE0EDBCF21
:10429000EAFF0D0EE926000EEA22060EE926000EC0
:1042A000EA22EF50005C01E3DCD0FD0EDBCFE9FF3A
:1042B000FE0EDBCFEAFF070EE926000EEA22EF2A08
:1042C00053EC3BF0FD0EDBCFE9FFFE0EDBCFEAFF48
:1042D000020EE926000EEA22EF6AFD0EDBCFE9FFAF
:1042E000FE0EDBCFEAFF0D0EE926000EEA22070ED6
:1042F000E926000EEA22EFCF01F0FD0EDBCFE9FF49
:10430000FE0EDBCFEAFF040EE926000EEA22EF5094
:104310000124006E3C0E005C1DE2FD0EDBCFE9FFC8
:10432000FE0EDBCFEAFF0D0EE926000EEA22070E95
:10433000E926000EEA22EFCF00F0FD0EDBCFE9FF09
:10434000FE0EDBCFEAFF040EE926000EEA22EF5054
:1043500000244FD0FD0EDBCFE9FFFE0EDBCFEAFFDE
:10436000030EE926000EEA22EF5017081AE0FD0EB0
:10437000DBCFE9FFFE0EDBCFEAFF030EE926000EDE
:10438000EA22EF28E66EFD0EDBCFE9FFFE0EDBCF63
:10439000EAFF050EE926000EEA22E552E750EF6E2D
:1043A0000BD0FD0EDBCFE9FFFE0EDBCFEAFF050EE3
:1043B000E926000EEA22EF6AFD0EDBCFE9FFFE0ED2
:1043C000DBCFEAFF0D0EE926000EEA22070EE926F2
:1043D000000EEA22EFCF00F0FD0EDBCFE9FFFE0E6C
:1043E000DBCFEAFF040EE926000EEA22EF5000249C
:1043F000C40FE66EFD0EDBCFE9FFFE0EDBCFEAFF5A
:10440000060EE926000EEA22E552E750EF6EFD0E99
:10441000DBCFE9FFFE0EDBCFEAFF0D0EE926000E33
:10442000EA22EF500CE1FD0EDBCFE9FFFE0EDBCF01
:10443000EAFF020EE926000EEA22020E0BD0FD0E64
:10444000DBCFE9FFFE0EDBCFEAFF020EE926000E0E
:10445000EA22010EEF6E200EE66E4CEC01F0E55202
:10446000C5D0FD0EDBCFE9FFFE0EDBCFEAFF020E6B
:10447000E926000EEA22EF50030801E1B7D0DF047D
:1044800001E080D0FD0EDBCFE9FFFE0EDBCFEAFFBF
:104490000A0EE926000EEA22EF040DE0FD0EDBCF46
:1044A000E9FFFE0EDBCFEAFF0A0EE926000EEA2244
:1044B000EF50020815E1FD0EDBCFE9FFFE0EDBCF6A
:1044C000EAFFEF5002E0000E01D0010EE66EFD0E95
:1044D000DBCFE9FFFE0EDBCFEAFFE552E75031D03C
:1044E000FD0EDBCFE9FFFE0EDBCFEAFF0A0EE92669
:1044F000000EEA22EF5003080CE1FD0EDBCFE9FFCE
:10450000FE0EDBCFEAFF0A0EE926000EEA22040EB9
:1045100018D0FD0EDBCFE9FFFE0EDBCFEAFF0A0E5F
:10452000E926000EEA22EF5004080DE1FD0EDBCF74
:10453000E9FFFE0EDBCFEAFF0A0EE926000EEA22B3
:10454000030EEF6E24D0FD0EDBCFE9FFFE0EDBCFB6
:10455000EAFF0A0EE926000EEA22EF5018E1060EE5
:10456000E76EFB0EDBCFE9FFFC0EDBCFEAFFE75087
:10457000E926000EEA22EE6AEE6AEE6A0001010EFA
:10458000DC6F05D0020EDF5C02E10001DC6BFD0E8A
:10459000DBCFE9FFFE0EDBCFEAFF0A0EE926000EB5
:1045A000EA22EF5023E10001DC5120E0060EE76E25
:1045B000FB0EDBCFE9FFFC0EDBCFEAFFE750E9267D
:1045C000000EEA22D880C40EEE54090EEE54000EFE
:1045D000EF540CE2FD0EDBCFE9FFFE0EDBCFEAFF6E
:1045E0000A0EE926000EEA22030EEF6EE552E552AE
:1045F000E7CFD9FF1200D9CFE6FFE1CFD9FFE652CE
:1046000010EC38F0DF6EDF500FE01B0EE76EFB0E94
:10461000DBCFE9FFFC0EDBCFEAFFE750E926000E17
:10462000EA22EE6AEE6AEE6AFD0EDBCFE9FFFE0ECD
:10463000DBCFEAFF0A0EE926000EEA22EF5003085C
:1046400001E1AAD0FD0EDBCFE9FFFE0EDBCFEAFFD2
:104650000A0EE926000EEA22EF50040801E19CD080
:10466000FD0EDBCFE9FFFE0EDBCFEAFF020EE926EF
:10467000000EEA22EF50020823E1FD0EDBCFE9FF36
:10468000FE0EDBCFEAFF0D0EE926000EEA22EF5008
:1046900001E082D0DF5001E17FD0FD0EDBCFE9FFEA
:1046A000FE0EDBCFEAFF020EE926000EEA22EF6AD9
:1046B000FD0EDBCFE9FFFE0EDBCFEAFFEE5237D077
:1046C000DF0437E1FD0EDBCFE9FFFE0EDBCFEAFFB3
:1046D0000D0EE926000EEA22EF502BE1FD0EDBCF96
:1046E000E9FFFE0EDBCFEAFF020EE926000EEA220A
:1046F000EF5003081EE153EC3BF0FD0EDBCFE9FF6A
:10470000FE0EDBCFEAFF020EE926000EEA22EF6A78
:10471000200EE66E4CEC01F0E552FD0EDBCFE9FF1A
:10472000FE0EDBCFEAFF070EE926000EEA22EF6A53
:1047300033D0FD0EDBCFE9FFFE0EDBCFEAFF020E2A
:10474000E926000EEA22EF5027E1DF0425E1FD0E05
:10475000DBCFE9FFFE0EDBCFEAFFEE52EF5002E0C7
:10476000000E01D0010EE66EFD0EDBCFE9FFFE0E5E
:10477000DBCFEAFFEE52E552E750EF6EFD0EDBCFE6
:10478000E9FFFE0EDBCFEAFFEE52EF5003E020EC34
:1047900001F002D01DEC01F0E552E552E7CFD9FF60
:1047A0001200D9CFE6FFE1CFD9FF070EE12682A0A4
:1047B00079D1060EE126F3EC36F0EECF00F0EECF25
:1047C00001F0EECF02F0EECF03F0EECF04F0EECF2B
:1047D00005F0066E060EE15E065000C0DFFF010E1A
:1047E00001C0DBFF020E02C0DBFF030E03C0DBFFD4
:1047F000040E04C0DBFF050E05C0DBFFFD0EDBCFA2
:10480000E9FFFE0EDBCFEAFF1E0EE926000EEA22CC
:10481000EF50E66EFD0EDBCFE9FFFE0EDBCFEAFFC9
:104820001F0EE926000EEA22EF50E66ED9CFE6FF12
:10483000DACFE6FF05EC39F0E552E552E552E552F4
:10484000E76E060EE7CFDBFFDB50090A01E1DBD0A4
:10485000080A40E0060A2BE0030A01E023D1FD0E1E
:10486000DBCFE9FFFE0EDBCFEAFF0A0EE926000EE2
:10487000EA22EF50030801E00ED1FD0EDBCFE9FF85
:10488000FE0EDBCFEAFF1E0EE926000EEA22010E25
:10489000DBCFEFFFFD0EDBCFE9FFFE0EDBCFEAFF44
:1048A0001F0EE926000EEA22DFCFEFFFEED0D9CFB0
:1048B000E6FFDACFE6FFFD0EDBCFE6FFFE0EDBCF35
:1048C000E6FFFAD8E552E552E552E552000901E16A
:1048D000E9D0DBD0D9CFE6FFDACFE6FFFD0EDBCFA4
:1048E000E6FFFE0EDBCFE6FFE7D8E552E552E552E4
:1048F000E552000901E1D6D0FD0EDBCFE9FFFE0E47
:10490000DBCFEAFF020EE926000EEA22EF0438E1CF
:10491000FD0EDBCFE6FFFE0EDBCFE6FFD9CFE6FFD5
:10492000DACFE6FFFFD8E552E552E552E55200093D
:1049300001E1B1D0FD0EDBCFE9FFFE0EDBCFEAFFD8
:10494000020EE926000EEA22EF6AFD0EDBCFE9FF38
:10495000FE0EDBCFEAFFEE52EF6AFD0EDBCFE9FF82
:10496000FE0EDBCFEAFF070EE926000EEA22EF6A11
:10497000D9CFE6FFDACFE6FF44D9E552E5523ED083
:10498000FD0EDBCFE9FFFE0EDBCFEAFF020EE926CC
:10499000000EEA22EF50030801E084D0FD0EDBCFC9
:1049A000E6FFFE0EDBCFE6FFD9CFE6FFDACFE6FF6C
:1049B000B9D8E552E552E552E55200096CE0FD0E2A
:1049C000DBCFE9FFFE0EDBCFEAFF020EE926000E89
:1049D000EA22EF6A53EC3BF0D9CFE6FFDACFE6FFED
:1049E00010D9E552E552FD0EDBCFE9FFFE0EDBCF1D
:1049F000EAFF070EE926000EEA22EF6A200EE66EB5
:104A00004CEC01F04ED0D9CFE6FFDACFE6FFFD0E39
:104A1000DBCFE6FFFE0EDBCFE6FF4ED8E552E552D8
:104A2000E552E552000937E0FD0EDBCFE9FFFE0E4F
:104A3000DBCFEAFF0D0EE926000EEA22E9CF00F0F7
:104A4000EACF01F0E9CFE6FFEACFE6FF6DEC26F012
:104A5000E552E552FD0EDBCFE9FFFE0EDBCFEAFFAC
:104A6000050EE926000EEA22EF6AFD0EDBCFE9FF14
:104A7000FE0EDBCFEAFF060EE926000EEA22EF6A01
:104A8000050EF36E020EF3CFDBFFD9CFE6FFDACFD0
:104A9000E6FFB7D805D0D9CFE6FFDACFE6FFE7D8F3
:104AA000E552E552070EE15C02E2E16AE552E16E91
:104AB000E552E7CFD9FF1200D9CFE6FFE1CFD9FF0A
:104AC000FD0EDBCFE9FFFE0EDBCFEAFF1E0EE9266F
:104AD000000EEA22EFCF00F0FB0EDBCFE9FFFC0E69
:104AE000DBCFEAFFEE52EF50005C17E1FD0EDBCFAB
:104AF000E9FFFE0EDBCFEAFF1F0EE926000EEA22D9
:104B0000EFCF01F0FB0EDBCFE9FFFC0EDBCFEAFFBE
:104B1000EF50015C02E1010E01D0000EE552E7CF3B
:104B2000D9FF1200D9CFE6FFE1CFD9FFFD0EDBCFD1
:104B3000E9FFFE0EDBCFEAFF040EE926000EEA22B3
:104B4000EFCF00F0FB0EDBCFE9FFFC0EDBCFEAFF7F
:104B5000080EE926000EEA22EF50005C19E1FD0E76
:104B6000DBCFE9FFFE0EDBCFEAFF030EE926000EE6
:104B7000EA22EFCF01F0FB0EDBCFE9FFFC0EDBCF2B
:104B8000EAFF090EE926000EEA22EF50015C32E04E
:104B9000FD0EDBCFE9FFFE0EDBCFEAFF040EE926B8
:104BA000000EEA22EFCF02F0FB0EDBCFE9FFFC0E96
:104BB000DBCFEAFF090EE926000EEA22EF50025C85
:104BC0001BE1FD0EDBCFE9FFFE0EDBCFEAFF030E9C
:104BD000E926000EEA22EFCF03F0FB0EDBCFE9FF60
:104BE000FC0EDBCFEAFF080EE926000EEA22EF50AA
:104BF000035C02E1010E01D0000EE552E7CFD9FFC0
:104C00001200D9CFE6FFE1CFD9FFFD0EDBCFE9FFE0
:104C1000FE0EDBCFEAFF040EE926000EEA22EF6863
:104C2000FD0EDBCFE9FFFE0EDBCFEAFF030EE92628
:104C3000000EEA22EF68FD0EDBCFE9FFFE0EDBCFB0
:104C4000EAFFEECFE6FFEECFE6FFEECFE6FFEECFD8
:104C5000E6FFEECFE6FFEECFE6FFAFEC36F0006EFC
:104C6000060EE15E0050E552E7CFD9FF1200D9CF22
:104C7000E6FFE1CFD9FFFD0EDBCFE9FFFE0EDBCF74
:104C8000EAFF040EE926000EEA22EF6AFD0EDBCFF2
:104C9000E9FFFE0EDBCFEAFF030EE926000EEA2253
:104CA000EF6AFD0EDBCFE9FFFE0EDBCFEAFFEECFB2
:104CB000E6FFEECFE6FFEECFE6FFEECFE6FFEECF6C
:104CC000E6FFEECFE6FFAFEC36F0006E060EE15EDB
:0A4CD0000050E552E7CFD9FF1200B3
:064CDA00D9CFE6FFE1CF97
:104CE000D9FFFD0EDBCFE9FFFE0EDBCFEAFF010EA1
:104CF000EF6E060EE76EFD0EDBCFE9FFFE0EDBCF9B
:104D0000EAFFE750E926000EEA22EF6A070EE76E97
:104D1000FD0EDBCFE9FFFE0EDBCFEAFFE750E92611
:104D2000000EEA22050EEF6E030EE76EFD0EDBCFDE
:104D3000E9FFFE0EDBCFEAFFE750E926000EEA228C
:104D4000EF6A040EE76EFD0EDBCFE9FFFE0EDBCF50
:104D5000EAFFE750E926000EEA22EF6A050EE76E49
:104D6000FD0EDBCFE9FFFE0EDBCFEAFFE750E926C1
:104D7000000EEA220A0EEF6E0C0EE76EFD0EDBCF80
:104D8000E9FFFE0EDBCFEAFFE750E926000EEA223C
:104D9000EF6A0F0EE76EFD0EDBCFE9FFFE0EDBCFF5
:104DA000EAFFE750E926000EEA220A0EEF6E100E27
:104DB000E76EFD0EDBCFE9FFFE0EDBCFEAFFE7502B
:104DC000E926000EEA220A0EEF6E010EE76EFD0ED6
:104DD000DBCFE9FFFE0EDBCFEAFFE750E926000E4E
:104DE000EA22EF6A0E0EE76EFD0EDBCFE9FFFE0E44
:104DF000DBCFEAFFE750E926000EEA22010EEF6E54
:104E0000020EE76EFD0EDBCFE9FFFE0EDBCFEAFF01
:104E1000E750E926000EEA22190EEF6E0D0EE76E3E
:104E2000FD0EDBCFE9FFFE0EDBCFEAFFE750E92600
:104E3000000EEA22010EEF6E0B0EE76EFD0EDBCFC9
:104E4000E9FFFE0EDBCFEAFFE750E926000EEA227B
:104E5000010EEF6E0A0EE76EFD0EDBCFE9FFFE0ED0
:104E6000DBCFEAFFE750E926000EEA220D0EEF6ED7
:104E7000090EE76EFD0EDBCFE9FFFE0EDBCFEAFF8A
:104E8000E750E926000EEA22030EEF6EE552E7CF67
:104E9000D9FF1200D9CFE6FFE1CFD9FFFB0EDBCF60
:104EA00020F0FC0EDBCF21F00B0E201801E1215089
:104EB00063E00D0E201801E121505EE0020E201883
:104EC00001E1215057E00E0E201801E1215054E07D
:104ED000010E201801E121504FE0100E201801E1D1
:104EE000215046E00F0E201801E1215041E00C0E48
:104EF000201801E1215040E0050E201801E1215069
:104F000035E0040E201801E1215036E0030E201890
:104F100001E1215031E0070E201801E1215026E087
:104F2000060E201801E1215023E0205001E121501C
:104F300023E00A0E201801E1215016E0090E201886
:104F400001E121500FE0080E201818E1215016E170
:104F5000FD0EDBCFE6FFFE0EDBCFE6FFE7D8E55226
:104F6000E5520DD00C0E0BD0630E09D03C0E07D0CD
:104F70000A0E05D0200E03D0010E01D0000EE5521E
:104F8000E7CFD9FF1200D9CFE6FFE1CFD9FFFB0E63
:104F9000DBCF20F0FC0EDBCF21F00B0E201801E15F
:104FA000215056E00D0E201801E1215051E0020E73
:104FB000201801E121504AE00E0E201801E1215095
:104FC00047E0010E201801E1215042E0100E2018A8
:104FD00001E121503DE00F0E201801E1215034E0A5
:104FE0000C0E201801E1215033E0050E201801E1DC
:104FF000215028E0040E201801E1215029E0030E81
:10500000201801E1215024E0070E201801E1215071
:1050100019E0060E201801E121501AE0205001E1AC
:10502000215016E00A0E201801E1215011E0090E6E
:10503000201801E1215008E0080E20180BE1215052
:1050400009E102D0050E07D0010E05D0180E03D0DD
:10505000000E01D0000EE552E7CFD9FF1200D9CFE4
:10506000E6FFE1CFD9FFFD0EDBCF20F0FE0EDBCF58
:1050700021F0050E201801E1215051E0080E201802
:1050800001E121504AE0090E201801E1215045E0DC
:105090000A0E201801E1215040E0205001E121508A
:1050A0003CE0060E201801E1215037E0030E2018E5
:1050B00001E1215032E0040E201801E121502DE0E1
:1050C0000C0E201801E1215028E00F0E201801E1FC
:1050D000215023E0100E201801E121501EE0010EA6
:1050E000201801E1215019E00E0E201801E1215095
:1050F00014E0020E201801E121500FE00D0E2018DF
:1051000001E121500AE00B0E201801E1215005E0D9
:10511000070E201806E1215004E1010E03D0050E10
:1051200001D0000EE552E7CFD9FF1200D9CFE6FF3C
:10513000E1CFD9FF030EE126FD0EDBCFE9FFFE0E26
:10514000DBCFEAFF0D0EE926000EEA220A0EE92661
:10515000000EEA22EF50016AD00F006E070E012206
:10516000010E00C0DBFF020E01C0DBFF010EDB50B1
:10517000030B48E1010EDBCF00F0020EDBCF01F0A4
:10518000190E256E266A00C020F001C021F039EC0E
:105190003DF01CC000F01DC001F01C501D1004E1CA
:1051A000010EDB500F0B2EE1FD0EDBCFE9FFFE0EF3
:1051B000DBCFEAFF0D0EE926000EEA22090EE926F2
:1051C000000EEA22EF50020A1AE0030A16E0020A71
:1051D00014E0060A12E0020A10E00F0A0EE0020ACA
:1051E0000CE0060A0AE0050A06E00D0A04E0020ADD
:1051F00002E00D0A34E11E0E03D01F0E01D01D0E79
:10520000DF6E2DD0FD0EDBCFE9FFFE0EDBCFEAFF18
:105210000D0EE926000EEA22090EE926000EEA220A
:10522000EF50020A1AE0030A16E0020A14E0060A26
:1052300012E0020A10E00F0A0EE0020A0CE0060A71
:105240000AE0050A06E00D0A04E0020A02E00D0A7F
:1052500006E11E0E03D01F0E01D01C0EDF6EDF50C4
:10526000006E030EE15C02E2E16AE552E16E00507D
:10527000E552E7CFD9FF1200D9CFE6FFE1CFD9FF42
:10528000FD0EDBCFE9FFFE0EDBCFEAFF050EE926C0
:10529000000EEA22070EEF6EFD0EDBCFE9FFFE0ED9
:1052A000DBCFEAFF060EE926000EEA22EF6A86EC63
:1052B0003AF0000901E0A8D0FD0EDBCFE9FFFE0EB9
:1052C000DBCFEAFF060EE926000EEA22E9CF00F066
:1052D000EACF01F0E9CFE6FFEACFE6FFFD0EDBCF34
:1052E000E9FFFE0EDBCFEAFF050EE926000EEA22FB
:1052F000E9CF02F0EACF03F0E9CFE6FFEACFE6FF1D
:10530000FD0EDBCFE9FFFE0EDBCFEAFF1F0EE92625
:10531000000EEA22E9CF04F0EACF05F0E9CFE6FF7C
:10532000EACFE6FFFD0EDBCFE9FFFE0EDBCFEAFFA3
:105330001E0EE926000EEA22E9CF06F0EACF07F0BA
:10534000E9CFE6FFEACFE6FFFD0EDBCFE9FFFE0E79
:10535000DBCFEAFF0D0EE926000EEA22E9CF08F0C6
:10536000EACF09F0E9CFE6FFEACFE6FFEDEC3AF04D
:105370000A6E0A0EE15E0A50FD0EDBCFE9FFFE0E5B
:10538000DBCFEAFF0D0EE926000EEA22E9CF00F09E
:10539000EACF01F0E9CFE6FFEACFE6FFFD0EDBCF73
:1053A000E6FFFE0EDBCFE6FFE4D9E552E552E5521B
:1053B000E552000901E0CFD0FD0EDBCFE9FFFE0E84
:1053C000DBCFEAFF0D0EE926000EEA22E9CF00F05E
:1053D000EACF01F0E9CFE6FFEACFE6FF7EDCE55257
:1053E000E552FD0EDBCFE9FFFE0EDBCFEAFF060E36
:1053F000E926000EEA22EF6AFD0EDBCFE9FFFE0E82
:10540000DBCFEAFF050EA3D0E66A60EC34F0E5528C
:105410000B0EE66EDFEC33F0E552280EE66E77EC0D
:1054200033F0E552120EE66E73EC34F0E552030EE3
:10543000E66E6AEC35F0E5520D0EE66EE1EC34F006
:10544000E552AAEC33F0E66EFD0EDBCFE9FFFE0E6F
:10545000DBCFEAFF030EE926000EEA22E552E75011
:10546000EF6E4CEC33F0E66EFD0EDBCFE9FFFE0E87
:10547000DBCFEAFF040EE926000EEA22E552E750F0
:10548000EF6EFD0EDBCFE9FFFE0EDBCFEAFF0A0E6B
:10549000E926000EEA22EF6AFD0EDBCFE9FFFE0EE1
:1054A000DBCFEAFF070EE926000EEA22EF6AFD0EC7
:1054B000DBCFE9FFFE0EDBCFEAFF020EE926000E8E
:1054C000EA22EF6AFD0EDBCFE9FFFE0EDBCFEAFF3B
:1054D000EF6AFD0EDBCFE9FFFE0EDBCFEAFFEE52F7
:1054E000010EEF6EFD0EDBCFE9FFFE0EDBCFEAFF14
:1054F0000B0EE926000EEA22080EEE6EED6AFD0E96
:10550000DBCFE9FFFE0EDBCFEAFF0D0EE926000E32
:10551000EA22E9CF00F0EACF01F0E9CFE6FFEACFD7
:10552000E6FF6DEC26F0E552E552FD0EDBCFE9FF1C
:10553000FE0EDBCFEAFF1E0EE926000EEA22EF6A1E
:10554000FD0EDBCFE9FFFE0EDBCFEAFF1F0EE926E3
:10555000000EEA22EF6AFD0EDBCFE9FFFE0EDBCF85
:10556000EAFF0D0EE926000EEA220A0EE926000ED9
:10557000EA22EF50E66EE1EC34F0E552FD0EDBCFAF
:10558000E9FFFE0EDBCFEAFF020EE926000EEA225B
:10559000EF6AFD0EDBCFE9FFFE0EDBCFEAFF070E61
:1055A000E926000EEA22EF6AFD0EDBCFE9FFFE0ED0
:1055B000DBCFEAFF0A0EE926000EEA22EF6AFD0EB3
:1055C000DBCFE9FFFE0EDBCFEAFFEE52EF6A1DEC08
:1055D00001F0FD0EDBCFE9FFFE0EDBCFEAFF0D0E83
:1055E000E926000EEA220F0EE926000EEA22EF500D
:1055F000E66E5DEC0FF0E552E66E24EC01F0E5524C
:10560000E552E7CFD9FF1200D9CFE6FFE1CFD9FFAE
:10561000FD0EDBCF00F0FE0EDBCF01F0FB0EDBCF8B
:1056200002F0FC0EDBCF03F00050025C0150035887
:1056300007E3FB0EDBCF02F0FC0EDBCF03F00AD05A
:10564000FB0EDBCF02F0FC0EDBCF03F0A00E022638
:10565000050E0322FD0EDB50025C006EFE0EDB50D9
:105660000358016E00C0F3FFF46EE552E7CFD9FF97
:105670001200D9CFE6FFE1CFD9FFFB0EDBCF00F060
:10568000FC0EDBCF01F0FD0EDBCF02F0FE0EDBCF18
:1056900003F00050025C015003580CE3FD0EDBCF19
:1056A00002F0FE0EDBCF03F0FB0EDB50025C006E5F
:1056B000FC0E0FD0FD0EDBCF02F0FE0EDBCF03F0B1
:1056C000A00E0226050E0322FD0EDB50025C006ECA
:1056D000FE0EDB500358016E00C0F3FFF46EE5527E
:1056E000E7CFD9FF1200D9CFE6FFE1CFD9FFFD0EFA
:1056F000DBCFE9FFFE0EDBCFEAFFEECF20F0EDCFF0
:1057000021F0205001E121502FE0030E201801E18B
:1057100021502AE0040E201801E1215025E00C0E52
:10572000201801E1215020E00D0E201801E1215048
:105730001BE0020E201801E1215016E0100E201887
:1057400001E1215011E0010E201801E121500CE08F
:105750000E0E201801E1215007E00B0E201801E188
:10576000215002E0000E01D0010EE552E7CFD9FF33
:105770001200D9CFE6FFE1CFD9FF020EE126DE6AA3
:10578000DD6ADECF00F0DDCF01F0110E005C000E0F
:10579000015801E376D0FB0EDBCF01F0FC0EDBCF2E
:1057A00002F0DE500124E96EDD500220EA6EEFCFF8
:1057B00000F000C0E6FFDECFE6FFDDCFE6FFFD0E26
:1057C000DBCFE6FFFE0EDBCFE6FFC3EC27F0E552B2
:1057D000E552E552E552E552E7CF00F0005C49E3BF
:1057E000FB0EDBCF04F0FC0EDBCF05F0DE50042413
:1057F000E96EDD500520EA6EEFCF03F003C0E6FF4F
:10580000DECFE6FFDDCFE6FFFD0EDBCFE6FFFE0ECF
:10581000DBCFE6FF4AEC27F0E552E552E552E552D0
:10582000E552E7CF03F0D880035423E3FB0EDBCF30
:1058300007F0FC0EDBCF08F0DE500724E96EDD50E8
:105840000820EA6EEFCF06F006C0E6FFDECFE6FFE7
:10585000DDCFE6FF2FEC28F0E552E552E552E7CF29
:1058600006F0096E266E06C021F08BEC3DF01D504F
:1058700002E0000E07D0DF2A010E01E282D7DB2A08
:1058800080D7010E006E020EE15C02E2E16AE55291
:0C589000E16E0050E552E7CFD9FF120096
:04589C00199E05D07C
:1058A000199E21AE02D0216C198E21C01BF01A6AFC
:1058B0002B6A2A6A860E1C6E1D6A32EF2FF0199E23
:1058C0000AD0199E21AE07D01F6C201E211EE86A47
:1058D00020222122198E21C01BF020C01AF01FC0E7
:1058E0002BF02A6A960E1C6E1D6A32EF2FF0277E6F
:1058F000196A6EEC2FF086EC2FF019B616EF2FF028
:1059000019A20AD019AA03D019BE16EF2FF019A4B4
:1059100022EF2FF01FEF2FF019AA05D019AC22EFBC
:105920002FF01FEF2FF019A00AD019A808D019BE28
:1059300004D019A402D02BEF2FF02FEF2FF02A6AFA
:105940001D6A2750225C296E10E31FC02BF020C077
:105950001AF021C01BF022C028F024C01FF025C07F
:1059600020F026C021F0193A09D024C02BF025C020
:105970001AF026C01BF027C028F0296C199E19BC0C
:10598000198E28C01CF019B05EEF2FF01A0E296096
:105990005EEF2FF01C6A226A19A408D01F6C201E2B
:1059A000211E221EE86A20222122222219AC08D0C0
:1059B0002B6C1A1E1B1E1C1EE86A1A221B221C229C
:1059C0001E6A295207E02234213220321F321E3251
:1059D000292EF9D71F502B2620501A2221501B2286
:1059E00022501C221EC02AF0199E1CAE0BD02A6C1D
:1059F0002B1E1A1E1B1E1C1EE86A2B221A221B229B
:105A00001C22198E1CA006D0D8801B321A322B32D1
:105A10002A32282A28C01CF032EF2FF0196A6EECC7
:105A20002FF086EC2FF019B616EF2FF019A205D043
:105A300019BA16EF2FF01DEF2FF019BA29EF2FF03A
:105A400019A005D019B816EF2FF029EF2FF019B8CB
:105A50001DEF2FF01D6A7F0E22241C6EE86A1D22A6
:105A600027501C5EE86A1D5A1A0E286E226A2A6A9E
:105A70002B6A1A6A1B6A24501F5E2550205A265032
:105A8000215A000E225A09E724501F2625502022B1
:105A900026502122000E222201D02A8AD8901F36B9
:105AA000203621362236D8902A362B361A361B3627
:105AB000282EE1D7215020101F10D8A42A8A32EFB7
