:020000040000FA
:06000000F1EF23F01200F5
:020006001200E6
:08000800DACFE4FFE2CFDAFFDA
:10001000E9CFE4FFEACFE4FFF6CFE4FFF7CFE4FF58
:10002000F5CFE4FFF3CFE4FFF4CFE4FFFACFE4FF32
:1000300000EE20F0140EE80403E3EECFE4FFFBD75C
:1000400000EE00F0200EE80403E3EECFE4FFFBD760
:10005000E652F2A446D09EA003D00001A02B9E90B1
:100060000001A1510001A05D02E317EC09F00001BD
:10007000A22B000EA323F29400019C511FE0060E58
:100080000001A45D06E28D848D828D800001A42B89
:1000900014D000019D51E8B08D80E8A08D90000142
:1000A0009F51E8B08D82E8A08D9200019E51E8B08A
:1000B0008D84E8A08D940001A46B12D000019D51A5
:1000C000E8B08D80E8A08D9000019F51E8B08D824E
:1000D000E8A08D9200019E51E8B08D84E8A08D9437
:1000E00001D0FF00E55200EE1FF0200EE80403E30C
:1000F000E5CFEDFFFBD700EE33F0140EE80403E389
:10010000E5CFEDFFFBD7E5CFFAFFE5CFF4FFE5CF75
:10011000F3FFE5CFF5FFE5CFF7FFE5CFF6FFE5CF3E
:0C012000EAFFE5CFE9FFE5CFDAFF1100B0
:04012C000500204862
:10013000000060000000300000001B480000A0002C
:1001400000000500000017480000A50000000400A2
:10015000000016480000AE00000001000000144836
:0A0160000000A900000002000000EA
:06016A00D9CFE6FFDACF59
:10017000E6FFE1CFD9FFE2CFDAFF4B0EE12402E345
:10018000E168E652E16ED950FA0FE96EFF0EDA200F
:10019000EA6E020EEECFDBFF030EEECFDBFF040EA6
:1001A000EECFDBFF050EEECFDBFFD950060FE66E7C
:1001B000000EDA20E66ED950FA0FE96EFF0EDA2053
:1001C000EA6EEECFE6FFEECFE6FFEECFE6FFEFCF33
:1001D000E6FFE6EC1FF0006E060EE15C02E2E16A6B
:1001E000E552E16E0050DF6ED9500D0FE66E000E45
:1001F000DA20E66ED950F60FE96EFF0EDA20EA6ECD
:10020000EECFE6FFEECFE6FFEECFE6FFEFCFE6FF65
:10021000E6EC1FF0006E060EE15C02E2E16AE552D8
:10022000E16E0050E76E010EE7CFDBFFD950FA0F09
:10023000E96EFF0EDA20EA6EEECFE6FFEECFE6FFC4
:10024000EECFE6FFEFCFE6FFD5EC22F0E552E55228
:10025000E552E552140E24C0DBFF150E25C0DBFF6E
:10026000160E26C0DBFF170E27C0DBFFD950190F73
:10027000E66E000EDA20E66E000EE66EE66AD950F3
:10028000F60FE96EFF0EDA20EA6EEECFE6FFEECF54
:10029000E6FFEECFE6FFEFCFE6FFD5EC1CF0006EF9
:1002A000080EE15C02E2E16AE552E16E0050190ECF
:1002B000DB5003E01A0EDB6A2BD0D950190FE66E23
:1002C000000EDA20E66E010EE66EE66AD950F60FF1
:1002D000E96EFF0EDA20EA6EEECFE6FFEECFE6FF24
:1002E000EECFE6FFEFCFE6FFD5EC1CF0006E080E78
:1002F000E15C02E2E16AE552E16E0050190EDB506A
:1003000002E1030E01D0050EF36E1A0EF3CFDBFFF0
:10031000010EDB0401E1B9D0FA0EDBCF00F0FB0ED9
:10032000DBCF01F0FC0EDBCF02F0FD0EDBCF03F0E4
:100330002A6A2B6A800E2C6E3F0E2D6E00C025F0AF
:1003400001C026F002C027F003C028F074EC17F0BB
:10035000010A01E19AD0800EDF5C04E0010EDB505F
:10036000800808E1020EDB68030EDB68040EDB6820
:100370007F0EFCD0DF0416E1130EDB5019E0020EF5
:10038000DB6A030EDB6A800EF36E040EF3CFDBFF35
:100390007F0EF36E050EF3CFDBFF210E0001AB6F76
:1003A000AC6B1DD0040EDF5C4DE1130EDB5009E099
:1003B000020EDB6A030EDB6A040EDB6A050EDB6AE3
:1003C0000ED0020EDB6A030EDB6A800EF36E040EA3
:1003D000F3CFDBFF7F0EF36E050EF3CFDBFF1A0EBC
:1003E000DBA4B2EF08F00C0EDB5002E1B2EF08F034
:1003F000020EDBCF00F0030EDBCF01F0040EDBCFEB
:1004000002F0050EDBCF03F02A6A2B6A800E2C6EF9
:10041000BF0E2D6E00C025F001C026F002C027F0EF
:1004200003C028F0EFEC14F0020E25C0DBFF030E32
:1004300026C0DBFF040E27C0DBFF050E28C0DBFF54
:10044000B2EF08F0010EDB50040801E07DD0140E7D
:10045000DBCF00F0150EDBCF01F0160EDBCF02F084
:10046000170EDBCF03F02A6A2B6A800E2C6E3F0E2C
:100470002D6E00C025F001C026F002C027F003C099
:1004800028F074EC17F0010A0BE1020EDB6A030E90
:10049000DB6A800EF36E040EF3CFDBFF3F0E66D0F7
:1004A000130EDB501FE0140EDBCF00F0150EDBCF78
:1004B00001F0160EDBCF02F0170EDBCF03F02A6A35
:1004C0002B6A800E2C6E3F0E2D6E00C025F001C0F1
:1004D00026F002C027F003C028F084EC17F0010AD0
:1004E0001FE128D0140EDBCF00F0150EDBCF01F09A
:1004F000160EDBCF02F0170EDBCF03F02A6A2B6A51
:10050000800E2C6E3F0E2D6E00C025F001C026F02F
:1005100002C027F003C028F084EC17F0010A0AE1BA
:10052000020EDB6A030EDB6A040EDB6A050EDB6A71
:10053000B2EF08F0020EDB6A030EDB6A800EF36E88
:10054000040EF3CFDBFF11D00C0EDB5015E01A0EBA
:10055000DB50010B11E1210E0001AB6FAC6B020E01
:10056000DB68030EDB68040EDB687F0EF36E050E9E
:10057000F3CFDBFFB2EF08F0F60EDBCF00F0F70EA3
:10058000DBCF01F0F80EDBCF02F0F90EDBCF03F08A
:100590002A6A2B6A800E2C6E3F0E2D6E00C025F04D
:1005A00001C026F002C027F003C028F074EC17F059
:1005B000010A14E1D950FA0FE96EFF0EDA20EA6E53
:1005C000020EEECFDBFF030EEECFDBFF040EEECF0D
:1005D000DBFF050EEECFDBFFB2EF08F0D9501B0FAB
:1005E000E66E000EDA20E66ED950FA0FE96EFF0EC5
:1005F000DA20EA6EEECFE6FFEECFE6FFEECFE6FFC3
:10060000EFCFE6FF2BEC21F0006E060EE15C02E27C
:10061000E16AE552E16E0050140E24C0DBFF150EB6
:1006200025C0DBFF160E26C0DBFF170E27C0DBFF41
:100630000C0EDB5003E1180EDB6A2FD0140EDBCF5B
:1006400000F0150EDBCF01F0160EDBCF02F0170E17
:10065000DBCF03F02A6A2B6A800E2C6EBF0E2D6E44
:1006600000C025F001C026F002C027F003C028F02A
:10067000EFEC14F0140E25C0DBFF150E26C0DBFFD7
:10068000160E27C0DBFF170E28C0DBFF1A0EDB504B
:10069000040BE76E180EE7CFDBFF140EDBCF00F084
:1006A000150EDBCF01F0160EDBCF02F0170EDBCFFD
:1006B00003F0F30E2A6E040E2B6E350E2C6E3F0ED9
:1006C0002D6E00C025F001C026F002C027F003C047
:1006D00028F084EC17F0010A2CE1010EE66EE66AC0
:1006E000D950140FE96E000EDA20EA6EEECFE6FF65
:1006F000EECFE6FFEECFE6FFEFCFE6FF8BEC20F08C
:10070000006E060EE15C02E2E16AE552E16E005025
:10071000140E24C0DBFF150E25C0DBFF160E26C00D
:10072000DBFF170E27C0DBFF1B0EDB061C0E01E2F2
:10073000DB06F60EDBCF25F0F70EDBCF26F0F80E4A
:10074000DBCF27F0F90EDBCF28F03DEC17F01D0EC4
:1007500024C0DBFF1E0E25C0DBFF1F0E26C0DBFF03
:10076000200E27C0DBFF1B0EDBCF26F01C0EDBCFDD
:1007700027F013EC16F0250E25C0DBFF260E26C051
:10078000DBFF270E27C0DBFF280E28C0DBFF250E6E
:10079000DBCF25F0260EDBCF26F0270EDBCF27F0B0
:1007A000280EDBCF28F0F60EDBCF2AF0F70EDBCFDA
:1007B0002BF0F80EDBCF2CF0F90EDBCF2DF0EFECA9
:1007C00014F03DEC17F0210E24C0DBFF220E25C0F3
:1007D000DBFF230E26C0DBFF240E27C0DBFFD95032
:1007E000210FE96E000EDA20EA6ED880030EEB507E
:1007F000FF0A08E6010EEE5C800EEE58FF0EEE5882
:10080000FF0EEE581AE3210EDBCF25F0220EDBCFD0
:1008100026F0230EDBCF27F0240EDBCF28F0283480
:10082000000E281809E6D880FF0E25547F0E2654A6
:10083000000E2754000E285409E2310EDB6A320EF6
:10084000DB6A330EDB6A340EDB6AACD3D9501D0F82
:10085000E96E000EDA20EA6ED880030EEB50FF0A34
:1008600008E6800EEE5CFF0EEE58FF0EEE58FF0E0F
:10087000EE5817E21B0E1C0EDBCF03F00001800EBA
:10088000031403E0800E006E0AD0D9501B0FE96EEE
:10089000000EDA20EA6EEE50ED1025E1006A016AE2
:1008A00034D01D0EDBCF25F01E0EDBCF26F01F0E41
:1008B000DBCF27F0200EDBCF28F02834000E2818DD
:1008C00009E6D880800E2554000E2654000E2754C9
:1008D000000E28542DE21B0E1C0EDBCF03F000018E
:1008E000800E031404E0800E006E01680ED0D95013
:1008F0001B0FE96E000EDA20EA6EEE50ED1002E1F9
:10090000006A02D0800E006E016A390E00C0DBFF63
:100910003A0E01C0DBFF370EDB6A380EDB6A2D0EA4
:10092000DB6A2E0EDB6A2F0EDB6A300EDB6A48D1E3
:100930001D0EDBCF26F01E0EDBCF27F0370E26C0B4
:10094000DBFF380E27C0DBFF210EDBCF26F0220EA7
:10095000DBCF27F0390E26C0DBFF3A0E27C0DBFFC6
:10096000110EDBCF00F0120EDBCF01F07F0E005E28
:10097000000E015A080E005E000E015A350E00C02E
:10098000DBFF360E01C0DBFFD950190FE66E000EFB
:10099000DA20E66E350EDBCFE6FF360EDBCFE6FF64
:1009A000D950F60FE96EFF0EDA20EA6EEECFE6FFC1
:1009B000EECFE6FFEECFE6FFEFCFE6FFD5EC1CF083
:1009C000006E080EE15C02E2E16AE552E16E005061
:1009D000470E24C0DBFF480E25C0DBFF490E26C0B2
:1009E000DBFF4A0E27C0DBFFF60EDBCF00F0F70E71
:1009F000DBCF01F0F80EDBCF02F0F90EDBCF03F016
:100A0000470EDBCF04F0480EDBCF05F0490EDBCFFD
:100A100006F04A0EDBCF07F004C02AF005C02BF029
:100A200006C02CF007C02DF000C025F001C026F054
:100A300002C027F003C028F026EC16F0430E25C0B4
:100A4000DBFF440E26C0DBFF450E27C0DBFF460E52
:100A500028C0DBFF250EDBCF25F0260EDBCF26F0EE
:100A6000270EDBCF27F0280EDBCF28F0470EDBCF99
:100A70002AF0480EDBCF2BF0490EDBCF2CF04A0ECC
:100A8000DBCF2DF0EFEC14F025C004F026C005F00C
:100A900027C006F028C007F0390EDBCF26F03A0E4B
:100AA000DBCF27F013EC16F025C008F026C009F0C4
:100AB00027C00AF028C00BF025C02AF026C02BF072
:100AC00027C02CF028C02DF004C025F005C026F06A
:100AD00006C027F007C028F026EC16F025C000F06D
:100AE00026C001F027C002F028C003F0250EDBCF9E
:100AF00025F0260EDBCF26F0270EDBCF27F0280EC1
:100B0000DBCF28F0430EDBCF2AF0440EDBCF2BF0F7
:100B1000450EDBCF2CF0460EDBCF2DF0EFEC14F0C2
:100B200025C00CF026C00DF027C00EF028C00FF035
:100B300025C02AF026C02BF027C02CF028C02DF0AD
:100B400000C025F001C026F002C027F003C028F045
:100B500027EC16F03F0E25C0DBFF400E26C0DBFF62
:100B6000410E27C0DBFF420E28C0DBFF3F0EDBCF6C
:100B700000F0400EDBCF01F0410EDBCF02F0420E61
:100B8000DBCF03F0180E2A6E720E2B6E310E2C6E18
:100B90003F0E2D6E00C025F001C026F002C027F0E8
:100BA00003C028F0EFEC14F02D0E25C0DBFF2E0E55
:100BB00026C0DBFF2F0E27C0DBFF300E28C0DBFF77
:100BC000F60EDBCF00F0F70EDBCF01F0F80EDBCF37
:100BD00002F0F90EDBCF03F0370EDBCF26F0380E34
:100BE000DBCF27F013EC16F025C004F026C005F08B
:100BF00027C006F028C007F025C02AF026C02BF039
:100C000027C02CF028C02DF000C025F001C026F030
:100C100002C027F003C028F026EC16F03B0E25C0DA
:100C2000DBFF3C0E26C0DBFF3D0E27C0DBFF3E0E88
:100C300028C0DBFF3B0EDBCF04F03C0EDBCF05F022
:100C40003D0EDBCF06F03E0EDBCF07F004C0E6FF23
:100C500005C0E6FF06C0E6FF07C0E6FFD950140F47
:100C6000E96E000EDA20EA6EEECFE6FFEECFE6FF89
:100C7000EECFE6FFEFCFE6FFB3EC11F0E552E55221
:100C8000E552E552E552E7CF07F0E552E7CF06F02F
:100C9000E552E7CF05F0E552E7CF04F024C008F0B5
:100CA00025C009F026C00AF027C00BF024C02AF0A6
:100CB00025C02BF026C02CF027C02DF004C025F055
:100CC00005C026F006C027F007C028F0EFEC14F0AE
:100CD00025C000F026C001F027C002F028C003F0B4
:100CE000D9502D0FE96E000EDA20EA6EEECF25F016
:100CF000EECF26F0EECF27F0EFCF28F000C02AF09D
:100D000001C02BF002C02CF003C02DF027EC16F030
:100D100028C0EDFF27C0EDFF26C0EDFF25C0EFFF87
:100D2000370EDBCF00F0380EDBCF01F00001800E74
:100D3000011410E026682768370EDBCF2BF0380E41
:100D4000DBCF2CF010EC17F0370E24C0DBFF380E91
:100D500025C0DBFF290EDB6A2A0EDB6A800EF36EEC
:100D60002B0EF3CFDBFF3F0EF36E2C0EF3CFDBFF2A
:100D7000D950370FE96E000EDA20EA6EEE50ED1012
:100D80006CE0370EDB50010B2CE0140EDBCF00F0D3
:100D9000150EDBCF01F0160EDBCF02F0170EDBCF06
:100DA00003F0D950290FE96E000EDA20EA6EEECF7B
:100DB00025F0EECF26F0EECF27F0EFCF28F000C0E1
:100DC0002AF001C02BF002C02CF003C02DF0EFEC94
:100DD00014F028C0EDFF27C0EDFF26C0EDFF25C0B1
:100DE000EFFFD950370FE96E000EDA20EA6E010EE0
:100DF0000F0B06E0EC52D890ED32EF32E806FAE144
:100E0000140EDBCF00F0150EDBCF01F0160EDBCF9A
:100E100002F0170EDBCF03F0D950140FE96E000E6D
:100E2000DA20EA6EEECF25F0EECF26F0EECF27F0F7
:100E3000EFCF28F000C02AF001C02BF002C02CF048
:100E400003C02DF0EFEC14F028C0EDFF27C0EDFF3C
:100E500026C0EDFF25C0EFFF8BD7130EDB5028E037
:100E6000256A266A800E276E3F0E286E290EDBCF7C
:100E70002AF02A0EDBCF2BF02B0EDBCF2CF02C0E22
:100E8000DBCF2DF0BDEC16F025C000F026C001F040
:100E900027C002F028C003F0290E25C0DBFF2A0E70
:100EA00026C0DBFF2B0E27C0DBFF2C0E28C0DBFF8C
:100EB000390EDBCFE6FF3A0EDBCFE6FF290EDBCFA4
:100EC00004F02A0EDBCF05F02B0EDBCF06F02C0E44
:100ED000DBCF07F004C0E6FF05C0E6FF06C0E6FF73
:100EE00007C0E6FFD9502D0FE96E000EDA20EA6E3A
:100EF000EECFE6FFEECFE6FFEECFE6FFEFCFE6FF69
:100F0000FCEC0DF0E552E552E552E552E552E7CF33
:100F100007F0E552E7CF06F0E552E7CF05F0E552DE
:100F2000E7CF04F024C008F025C009F026C00AF07D
:100F300027C00BF024C02AF025C02BF026C02CF0CF
:100F400027C02DF004C025F005C026F006C027F00C
:100F500007C028F0EFEC14F025C000F026C001F027
:100F600027C002F028C003F025C0E6FF26C0E6FF38
:100F700027C0E6FF28C0E6FF8BEC20F00C6E060EC3
:100F8000E15C02E2E16AE552E16E0C50310E24C0F0
:100F9000DBFF320E25C0DBFF330E26C0DBFF340E35
:100FA00027C0DBFFD950060FE66E000EDA20E66E92
:100FB000D950310FE96E000EDA20EA6EEECFE6FF6F
:100FC000EECFE6FFEECFE6FFEFCFE6FFE6EC1FF059
:100FD000006E060EE15C02E2E16AE552E16E00504D
:100FE000DF6E850EDF1401E17DD0220E0001AB6FB4
:100FF000AC6BD950FA0FE96EFF0EDA20EA6EEECF35
:10100000E6FFEECFE6FFEECFE6FFEFCFE6FFD5EC53
:1010100022F0E552E552E552E55224C000F025C029
:1010200001F026C002F027C003F02A6A2B6A800E66
:101030002C6E3F0E2D6E24C025F001C026F002C09C
:1010400027F003C028F084EC17F0010A03E1130E27
:10105000DB5031E1D950FA0FE96EFF0EDA20EA6E6B
:10106000EECFE6FFEECFE6FFEECFE6FFEFCFE6FFF7
:10107000D5EC22F0E552E552E552E55224C004F0E9
:1010800025C005F026C006F027C007F02A6A2B6AA3
:10109000800E2C6E3F0E2D6E24C025F005C026F06C
:1010A00006C027F007C028F07BEC17F0010A12E118
:1010B000130EDB500FE1310EDB6A320EDB6A800E5D
:1010C000F36E330EF3CFDBFF7F0EF36E340EF3CFF0
:1010D000DBFF08D0310EDB6A320EDB6A330EDB6ACF
:1010E000340EDB6A180EDB5025E0310EDBCF04F046
:1010F000320EDBCF05F0330EDBCF06F0340EDBCF44
:1011000007F02A6A2B6A800E2C6EBF0E2D6E04C06B
:1011100025F005C026F006C027F007C028F0EFEC48
:1011200014F025C000F026C001F027C002F028C04E
:1011300003F00CD0310EDBCF00F0320EDBCF01F02C
:10114000330EDBCF02F0340EDBCF03F0020E00C013
:10115000DBFF030E01C0DBFF040E02C0DBFF050E48
:1011600003C0DBFF020EDBCF00F0030EDBCF01F08C
:10117000040EDBCF02F0050EDBCF03F000C024F03D
:1011800001C025F002C026F003C027F04B0EE15C41
:1011900002E2E16AE552E16EE552E5CFDAFFE7CF20
:0411A000D9FF120061
:0C11A4007F6A926A936A946A956A966A60
:1011B000896A8A6A8C6A8D688F0ED3146009D36E2F
:1011C000969096929694010EE66EE66AE66AE2ECD6
:1011D0000DF0E552E552E552F00ED2140709D26E39
:1011E000D29ED288A194D2AAFED7D58CF80ED5145F
:1011F0000209D56ED596D59AD58EF294F28ACF0E85
:10120000CD143009CD6ECD92CD80D09EF28EF28C71
:10121000650EE66E08EC23F0E55200019A6F640E4D
:10122000E66E08EC23F0E55200019B6F1200F29E7F
:10123000360EE66EAEEC18F0E552390EE66EAEEC08
:1012400018F0E5528984D59EF29AF294CD909D9043
:101250009E90C69A8C6A8D808D848D82D298B56A54
:10126000B46ABD6ABA6A7A9E7B9ED39EC69ACD96B0
:101270008A968A98899C899EF28ED09E9E90F29240
:10128000F090F092F19CF19AF198F288F086F08853
:1012900003001200A1A41CD0A19400019C6BF00ECD
:1012A000D2140509D26ED2AAFED7A194A1A423D04C
:1012B000010EE66EE66EE66AE2EC0DF0E552E552EE
:1012C000E5524CEC1AF0E66A73EC1BF0E5521200A2
:1012D000E66A010EE66EE66EE2EC0DF0E552E552CE
:1012E000E55204EC1AF0010EE66E73EC1BF0E552C9
:1012F0000001010E9C6F12009EA003D00001A02BE4
:101300009E900001A151A05D01E391DF1200000158
:10131000A06B1200D9CFE6FFE1CFD9FF070EE1267F
:10132000010EF36E060EF3CFDBFF050EDB6A060E31
:10133000DBCF00F0000EE76E0018E8AE02D00034FC
:1013400003D0E750D880005454E2D950F90FE96E29
:10135000FF0EDA20EA6EEECFE6FFEECFE6FFEECF2D
:10136000E6FFEECFE6FFEECFE6FFEECFE6FF34EC92
:1013700019F0006E060EE15E00500001A26BA36B37
:101380008050010B05E12C0EA25D010EA359F8E37C
:1013900080A02CD0060EE12678EC19F0EECF00F0FC
:1013A000EECF01F0EECF02F0EECF03F0EECF04F07F
:1013B000EECF05F0066E060EE15E065000C0DFFFC0
:1013C000010E01C0DBFF020E02C0DBFF030E03C0F3
:1013D000DBFF040E04C0DBFF050E05C0DBFF010EC2
:1013E000F36E050EF3CFDBFF060EA0D7060EDB066D
:1013F0009ED7D9CFE9FFDACFEAFFEECF00F0EECFEC
:1014000001F0EECF02F0EECF03F0EECF04F0EFCF1D
:1014100005F0D9CFE9FFDACFEAFFED50ED5005C076
:10142000EDFF04C0EDFF03C0EDFF02C0EDFF01C002
:10143000EDFF00C0EFFF070EE15C02E2E16AE5525A
:10144000E16EE552E7CFD9FF1200D9CFE6FFE1CF39
:10145000D9FF040EE126010EDB6A020EDB6AFE0EE6
:10146000DB04E76E030EE7CFDBFF030EDBCF00F0FC
:10147000003401E383D040DF29EC22F0DF6E0B0E55
:10148000DF5C08E10B0EF36E010EF3CFDBFF020E03
:10149000DB6A74D0630EDF5CE8E04CEC1AF0DFCF5F
:1014A00006F006C027F0DEEC14F025C002F026C0DE
:1014B00003F027C004F028C005F025C0E6FF26C0D1
:1014C000E6FF27C0E6FF28C0E6FF030EDBCF0FF0E4
:1014D0000FC027F0E0EC14F025C00BF026C00CF094
:1014E00027C00DF028C00EF025C0E6FF26C0E6FF9D
:1014F00027C0E6FF28C0E6FFE66AE66A200EE66E31
:10150000410EE66EB5EC00F0106E080EE15E105074
:10151000E552E7CF05F0E552E7CF04F0E552E7CF1B
:1015200003F0E552E7CF02F024C007F025C008F031
:1015300026C009F027C00AF024C02AF025C02BF0ED
:1015400026C02CF027C02DF002C025F003C026F0E5
:1015500004C027F005C028F0EFEC14F05CEC15F0A7
:1015600027C001F0D950010FE96EDACFEAFF26500B
:10157000EE260150ED22030EDB0677D7010EDBCFFE
:1015800000F0020EDBCF01F000C0F3FF01C0F4FF5A
:10159000040EE15C02E2E16AE552E16EE552E7CF5A
:1015A000D9FF120000019A511200D9CFE6FFE1CF16
:1015B000D9FFFE0EDBCF9AF0E552E7CFD9FF12003C
:1015C00000019B511200D9CFE6FFE1CFD9FFFE0EFB
:1015D000DBCF9BF0E552E7CFD9FF1200D9CFE6FF72
:1015E000E1CFD9FF0C0EE12614EC1BF0010E9AC0DE
:1015F000DBFF9BC0DFFFF36E020EF3CFDBFF630E5A
:10160000F36E030EF3CFDBFF630EF36E040EF3CF26
:10161000DBFFD9CFE9FFDACFEAFFEECFE6FFEECF6F
:10162000E6FFEECFE6FFEECFE6FFEECFE6FFEECF32
:10163000E6FF70DEEECF00F0EECF01F0EECF02F06D
:10164000EECF03F0EECF04F0EECF05F0066E060EFF
:10165000E15E0650060E00C0DBFF070E01C0DBFF97
:10166000080E02C0DBFF090E03C0DBFF0A0E04C038
:10167000DBFF0B0E05C0DBFF9AC0E6FF9BC0E6FF59
:10168000D950060FE66E000EDA20E66E7EEC1BF0F7
:10169000E552E552E552E552080802E1D8EC1AF0AD
:1016A000D9CFE9FFDACFEAFFEECFE6FFEECFE6FFD4
:1016B000EECFE6FFEECFE6FFEECFE6FFEECFE6FFA2
:1016C00029DEEECF00F0EECF01F0EECF02F0EECF4C
:1016D00003F0EECF04F0EECF05F0066E060EE15EED
:1016E0000650060E00C0DBFF070E01C0DBFF080E30
:1016F00002C0DBFF090E03C0DBFF0A0E04C0DBFFE4
:101700000B0E05C0DBFF9AC0E6FF9BC0E6FFD95079
:10171000060FE66E000EDA20E66E7EEC1BF0E55258
:10172000E552E552E552080808E1D8EC1AF0500EEF
:10173000E66E8DEC23F0E5520ED04CEC1AF04CEC3A
:101740001AF04CEC1AF04CEC1AF04CEC1AF04CEC91
:101750001AF04CEC1AF06CEC1BF0D9DD0C0EE15CCD
:1017600002E2E16AE552E16EE552E7CFD9FF1200ED
:10177000D9CFE6FFE1CFD9FF0A0EE12632EC23F004
:10178000F3CF00F0F4CF01F0F3CFE6FFF4CFE6FFA4
:1017900051EC23F0E552E55258EC23F0060EF3CF5E
:1017A000DBFF070EF4CFDBFF060EDBCF00F0070EEA
:1017B000DBCF01F0000E0016FF0E011601C000F095
:1017C000016A090E00C0DBFFFF0EE76E060EDBCFDD
:1017D00000F0070EDBCF01F0E7500016016A080E9B
:1017E00000C0DBFF090EDB50DF6E080EDB50E76E3A
:1017F000010EE7CFDBFF030EF36E020EF3CFDBFF2C
:10180000630EF36E030EF3CFDBFF630EF36E040E75
:10181000F3CFDBFFD9CFE9FFDACFEAFFEECFE6FF68
:10182000EECFE6FFEECFE6FFEECFE6FFEECFE6FF30
:10183000EECFE6FF6FDDEECF00F0EECF01F0EECFA2
:1018400002F0EECF03F0EECF04F0EECF05F0066E1F
:10185000060EE15E065000C0DFFF010E01C0DBFF97
:10186000020E02C0DBFF030E03C0DBFF040E04C048
:10187000DBFF050E05C0DBFFDB503DE0090EDB5052
:10188000DF5C39E1080EDB50F36E010EDB50F35CD8
:1018900032E1030EDB50006E016AFF0E00182BE1EF
:1018A000015029E1040EDB50026E036AFF0E02189C
:1018B00022E1035020E1090EDBCFE6FF640EE66E65
:1018C00017EC23F0E552E552080EDBCFE6FF650E7C
:1018D000E66E17EC23F0E552E552080EDBCF9AF0E6
:1018E000090EDBCF9BF0D8EC1AF0320EE66E8DECD1
:1018F00023F0E55216D0ECEC1AF0320EE66E8DECC9
:1019000023F0E5524CEC1AF04CEC1AF04CEC1AF0C7
:10191000ECEC1AF0320EE66E8DEC23F0E5526CEC36
:101920001BF00A0EE15C02E2E16AE552E16EE5526B
:10193000E7CFD9FF1200D9CFE6FFE1CFD9FF060EDE
:10194000E1269BC0DFFF010E9AC0DBFF050EF36EA0
:10195000020EF3CFDBFF630EF36E030EF3CFDBFF5C
:10196000630EF36E040EF3CFDBFFD9CFE9FFDACFBE
:10197000EAFFEECFE6FFEECFE6FFEECFE6FFEECFDB
:10198000E6FFEECFE6FFEECFE6FFC4DCEECF00F0E1
:10199000EECF01F0EECF02F0EECF03F0EECF04F089
:1019A000EECF05F0066E060EE15E065000C0DFFFCA
:1019B000010E01C0DBFF020E02C0DBFF030E03C0FD
:1019C000DBFF040E04C0DBFF050E05C0DBFFDB50B0
:1019D00021E0020EDB5005081DE100019B51DF5C98
:1019E00019E1010EDB509A5D15E1030EDB50006E2C
:1019F000016AFF0E00180EE101500CE1040EDB50ED
:101A0000026E036AFF0E021805E1035003E1D8ECF1
:101A10001AF00FD0ECEC1AF0320EE66E8DEC23F0DB
:101A2000E5524CEC1AF04CEC1AF04CEC1AF0ECECE1
:101A30001AF0320EE66E8DEC23F0E5526CEC1BF0E2
:101A4000060EE15C02E2E16AE552E16EE552E7CFA3
:101A5000D9FF1200D9CFE6FFE1CFD9FF0E0EE12664
:101A6000FD0EDBCF00F0FE0EDBCF01F0640E2B6E1F
:101A70002C6A00C026F001C027F0BBEC23F00D0E4D
:101A800022C0DBFF640E006E016AFD0EDBCF26F084
:101A9000FE0EDBCF27F000C02BF001C02CF0BBEC1A
:101AA00023F00C0E26C0DBFF14EC1BF0010E9AC0D5
:101AB000DBFF9BC0DFFF020EF36EDB6E0C0EDB5014
:101AC000E76E030EE7CFDBFF0D0EDB50E76E040E73
:101AD000E7CFDBFF010EF36E050EF3CFDBFFD9CFAF
:101AE000E9FFDACFEAFFEECFE6FFEECFE6FFEECF7B
:101AF000E6FFEECFE6FFEECFE6FFEECFE6FF0ADC35
:101B0000EECF00F0EECF01F0EECF02F0EECF03F01B
:101B1000EECF04F0EECF05F0066E060EE15E065045
:101B2000060E00C0DBFF070E01C0DBFF080E02C07F
:101B3000DBFF090E03C0DBFF0A0E04C0DBFF0B0E48
:101B400005C0DBFFDB502AE0060EDB5000019B5D89
:101B500025E1070EDB509A5D21E1090EDB50006E96
:101B6000016AFF0E00181AE1015018E10A0EDB505D
:101B7000026E036AFF0E021811E103500FE194ECAC
:101B80001AF094EC1AF094EC1AF0D8EC1AF0E6681B
:101B90008DEC23F0E55217EC09F00AD04CEC1AF06A
:101BA0004CEC1AF04CEC1AF04CEC1AF06CEC1BF00C
:101BB0000E0EE15C02E2E16AE552E16EE552E7CF2A
:101BC000D9FF1200D9CFE6FFE1CFD9FFFC0EDBCF62
:101BD0009DF0FD0EDBCF9FF0FE0EDBCF9EF0E552B9
:101BE000E7CFD9FF120000019E51120000019F5162
:081BF000120000019D511200DA
:081BF800D9CFE6FFDACFE6FFCA
:101C0000E1CFD9FFE2CFDAFF260EE12402E3E1685B
:101C1000E652E16ED950FA0FE96EFF0EDA20EA6E55
:101C2000010EEECFDBFF020EEECFDBFF030EEECF99
:101C3000DBFF040EEECFDBFF050EDB6A060EDB6A70
:101C4000800EF36E070EF3CFDBFF330EF36E080E3C
:101C5000F3CFDBFFD950090FE66E000EDA20E66EF7
:101C6000D950010FE96E000EDA20EA6EEECFE6FFE2
:101C7000EECFE6FFEECFE6FFEFCFE6FFE6EC1FF09C
:101C8000006E060EE15C02E2E16AE552E16E005090
:101C9000DF6E800EDF5C07E1010EDB68020EDB68A1
:101CA000030EDB6838D0DF0401E1A0D0040EDF5C56
:101CB00005E10F0EDB5001E136D353D0FA0EDBCF36
:101CC00000F0FB0EDBCF01F0FC0EDBCF02F0FD0ECF
:101CD000DBCF03F0170E2A6E720E2B6EB10E2C6E38
:101CE000420E2D6E00C025F001C026F002C027F084
:101CF00003C028F07BEC17F0010A0FE1220E00016F
:101D0000AB6FAC6B010EDB6A020EDB6A800EF36E0A
:101D1000030EF3CFDBFF7F0E73D0FA0EDBCF00F0A4
:101D2000FB0EDBCF01F0FC0EDBCF02F0FD0EDBCFB4
:101D300003F0D80E2A6E8E0E2B6ECE0E2C6EC20EB7
:101D40002D6E00C025F001C026F002C027F003C0B0
:101D500028F084EC17F0010A0DE1220E0001AB6FB0
:101D6000AC6B010EDB6A020EDB6A030EDB6A040E4B
:101D7000DB6AD9D2D950FA0FE96EFF0EDA20EA6E8B
:101D8000EECFE6FFEECFE6FFEECFE6FFEFCFE6FFCA
:101D9000D5EC22F0E552E552E552E55224C000F0C0
:101DA00025C001F026C002F027C003F0050EDBCFEE
:101DB00004F0060EDBCF05F0070EDBCF06F0080EB1
:101DC000DBCF07F004C02AF005C02BF006C02CF0D2
:101DD00007C02DF024C025F001C026F002C027F076
:101DE00003C028F084EC17F0010A0FE1010EDB6A52
:101DF000020EDB6A800EF36E030EF3CFDBFF3F0EA5
:101E0000F36E040EF3CFDBFF8ED2FA0EDBCF00F0C1
:101E1000FB0EDBCF01F0FC0EDBCF02F0FD0EDBCFC3
:101E200003F03B0E2A6EAA0E2B6EB80E2C6E3F0EE0
:101E30002D6E00C025F001C026F002C027F003C0BF
:101E400028F0EFEC14F01E0E25C0DBFF1F0E26C09D
:101E5000DBFF200E27C0DBFF210E28C0DBFF1E0E9C
:101E6000DBCF00F01F0EDBCF01F0200EDBCF02F046
:101E7000210EDBCF03F02A6A2B6A2C6A2D6A00C080
:101E800025F001C026F002C027F003C028F084EC42
:101E900017F0010A1CE11E0EDBCF00F01F0EDBCF96
:101EA00001F0200EDBCF02F0210EDBCF03F02A6A17
:101EB0002B6A2C6A3F0E2D6E00C025F001C026F063
:101EC00002C027F003C028F026EC16F01BD01E0E2F
:101ED000DBCF00F01F0EDBCF01F0200EDBCF02F0D6
:101EE000210EDBCF03F02A6A2B6A2C6A3F0E2D6E7F
:101EF00000C025F001C026F002C027F003C028F082
:101F000027EC16F05CEC15F01C0E26C0DBFF1D0E56
:101F100027C0DBFF1C0EDBCF26F01D0EDBCF27F02A
:101F200013EC16F025C000F026C001F027C002F027
:101F300028C003F02A6A2B6A800E2C6EBF0E2D6E0D
:101F4000EFEC14F01E0E25C0DBFF1F0E26C0DBFFDA
:101F5000200E27C0DBFF210E28C0DBFFFA0EDBCFEF
:101F600004F0FB0EDBCF05F0FC0EDBCF06F0FD0E20
:101F7000DBCF07F01E0EDBCF0CF01F0EDBCF0DF01A
:101F8000200EDBCF0EF0210EDBCF0FF02A6A800E81
:101F90002B6E310E2C6E3F0E2D6E0CC025F00DC039
:101FA00026F00EC027F00FC028F0EFEC14F025C08B
:101FB00008F026C009F027C00AF028C00BF025C0A1
:101FC0002AF026C02BF027C02CF028C02DF004C02A
:101FD00025F005C026F006C027F007C028F027EC42
:101FE00016F025C000F026C001F027C002F028C07E
:101FF00003F01E0EDBCF14F01F0EDBCF15F0200E0A
:10200000DBCF16F0210EDBCF17F0830E2A6E800E89
:102010002B6E5E0E2C6EB90E2D6E14C025F015C001
:1020200026F016C027F017C028F0EFEC14F025C0FA
:1020300010F026C011F027C012F028C013F025C000
:102040002AF026C02BF027C02CF028C02DF000C0AD
:1020500025F001C026F002C027F003C028F027ECCD
:1020600016F0180E25C0DBFF190E26C0DBFF1A0E76
:1020700027C0DBFF1B0E28C0DBFF180EDBCF25F0CF
:10208000190EDBCF26F01A0EDBCF27F01B0EDBCFAD
:1020900028F0180EDBCF2AF0190EDBCF2BF01A0E2A
:1020A000DBCF2CF01B0EDBCF2DF0EFEC14F0220E6B
:1020B00025C0DBFF230E26C0DBFF240E27C0DBFF7D
:1020C000250E28C0DBFF220EDBCF04F0230EDBCF72
:1020D00005F0240EDBCF06F0250EDBCF07F0080E4F
:1020E0002A6E530E2B6E880E2C6E3B0E2D6E04C086
:1020F00025F005C026F006C027F007C028F0EFEC59
:1021000014F025C000F026C001F027C002F028C05E
:1021100003F02A6A2B6A800E2C6E3E0E2D6E27EC81
:1021200016F0180EDBCF2AF0190EDBCF2BF01A0EAB
:10213000DBCF2CF01B0EDBCF2DF0EFEC14F0100EEC
:1021400025C0DBFF110E26C0DBFF120E27C0DBFF10
:10215000130E28C0DBFF220EDBCF04F0230EDBCFF3
:1021600005F0240EDBCF06F0250EDBCF07F05B0E6B
:102170002A6EBF0E2B6E4C0E2C6E3D0E2D6E04C0C3
:1021800025F005C026F006C027F007C028F0EFECC8
:1021900014F025C000F026C001F027C002F028C0CE
:1021A00003F02A6A2B6A2C6A3F0E2D6E27EC16F07C
:1021B000140E25C0DBFF150E26C0DBFF160E27C050
:1021C000DBFF170E28C0DBFF006A016A026A3F0EC0
:1021D000036E100EDBCF08F0110EDBCF09F0120EEC
:1021E000DBCF0AF0130EDBCF0BF0140EDBCF10F0B9
:1021F000150EDBCF11F0160EDBCF12F0170EDBCF72
:1022000013F0100EDBCF14F0110EDBCF15F0120E11
:10221000DBCF16F0130EDBCF17F014C02AF015C079
:102220002BF016C02CF017C02DF010C025F011C0F7
:1022300026F012C027F013C028F026EC16F025C0B7
:102240000CF026C00DF027C00EF028C00FF025C0FE
:102250002AF026C02BF027C02CF028C02DF008C093
:1022600025F009C026F00AC027F00BC028F0BDEC0D
:1022700016F025C004F026C005F027C006F028C0DF
:1022800007F025C02AF026C02BF027C02CF028C06C
:102290002DF000C025F001C026F002C027F003C0D9
:1022A00028F027EC16F0010E25C0DBFF020E26C039
:1022B000DBFF030E27C0DBFF040E28C0DBFF010E8F
:1022C000E76E1C0EDBCF00F01D0EDBCF01F0E750F8
:1022D0000026000E012200C0E6FF01C0E6FFD95033
:1022E000010FE96E000EDA20EA6EEECFE6FFEECFC8
:1022F000E6FFEECFE6FFEFCFE6FF8BEC20F0026EBD
:10230000060EE15C02E2E16AE552E16E0250010E66
:1023100024C0DBFF020E25C0DBFF030E26C0DBFF5F
:10232000040E27C0DBFF010EDBCF00F0020EDBCF77
:1023300001F0030EDBCF02F0040EDBCF03F000C090
:1023400024F001C025F002C026F003C027F0260EBD
:10235000E15C02E2E16AE552E16EE552E5CFDAFFC7
:06236000E7CFD9FF1200D7
:0A236600D9CFE6FFDACFE6FFE1CFA2
:10237000D9FFE2CFDAFF260EE12402E3E168E6525C
:10238000E16ED950050FE66E000EDA20E66ED950E8
:10239000FA0FE96EFF0EDA20EA6EEECFE6FFEECF1F
:1023A000E6FFEECFE6FFEFCFE6FFE6EC1FF0006EB4
:1023B000060EE15C02E2E16AE552E16E0050DF6E7A
:1023C000800EDF5C05E00B0EDB5012E0DF0410E056
:1023D000210E0001AB6FAC6B010EDB68020EDB68F7
:1023E000030EDB687F0EF36E040EF3CFDBFFC6D265
:1023F000040EDF5C13E1D950FA0FE96EFF0EDA200C
:10240000EA6E010EEECFDBFF020EEECFDBFF030E16
:10241000EECFDBFF040EEECFDBFFB0D2DF0410E126
:10242000210E0001AB6FAC6B010EDB6A020EDB6AA2
:10243000800EF36E030EF3CFDBFF040EDB689ED23B
:10244000D9500C0FE66E000EDA20E66ED950FA0F66
:10245000E96EFF0EDA20EA6EEECFE6FFEECFE6FF82
:10246000EECFE6FFEFCFE6FF2BEC21F0006E060E7D
:10247000E15C02E2E16AE552E16E0050FA0E24C02E
:10248000DBFFFB0E25C0DBFFFC0E26C0DBFFFD0ED5
:1024900027C0DBFFFA0EDBCF00F0FB0EDBCF01F035
:1024A000FC0EDBCF02F0FD0EDBCF03F0F30E2A6E45
:1024B000040E2B6E350E2C6E3F0E2D6E00C025F0D7
:1024C00001C026F002C027F003C028F07BEC17F013
:1024D000010A41E1FA0EDBCF04F0FB0EDBCF05F081
:1024E000FC0EDBCF06F0FD0EDBCF07F02A6A2B6A6D
:1024F0002C6A3F0E2D6E04C025F005C026F006C0E4
:1025000027F007C028F026EC16F025C000F026C002
:1025100001F027C002F028C003F02A6A2B6A2C6A57
:102520003F0E2D6E26EC16F0160E25C0DBFF170EA3
:1025300026C0DBFF180E27C0DBFF190E28C0DBFF0B
:10254000FA0EDBCF04F0FB0EDBCF05F0FC0EDBCF89
:1025500006F0FD0E36D00C0EDB060D0E01E2DB069A
:10256000FA0EDBCF00F0FB0EDBCF01F0FC0EDBCF71
:1025700002F0FD0EDBCF03F02A6A2B6A2C6A3F0EB5
:102580002D6E00C025F001C026F002C027F003C068
:1025900028F026EC16F0160E25C0DBFF170E26C01D
:1025A000DBFF180E27C0DBFF190E28C0DBFF160E5D
:1025B000DBCF04F0170EDBCF05F0180EDBCF06F0F3
:1025C000190EDBCF07F02A6A2B6A2C6A3F0E2D6E9C
:1025D00004C025F005C026F006C027F007C028F08B
:1025E000EFEC14F025C000F026C001F027C002F087
:1025F00028C003F02A6A2B6A2C6A3F0E2D6E27EC46
:1026000016F01A0E25C0DBFF1B0E26C0DBFF1C0ECA
:1026100027C0DBFF1D0E28C0DBFF160EDBCF25F029
:10262000170EDBCF26F0180EDBCF27F0190EDBCF0D
:1026300028F01A0EDBCF2AF01B0EDBCF2BF01C0E7E
:10264000DBCF2CF01D0EDBCF2DF0BDEC16F025C03E
:1026500000F026C001F027C002F028C003F0120EDF
:1026600025C0DBFF130E26C0DBFF140E27C0DBFFE7
:10267000150E28C0DBFF120EDBCF25F0130EDBCFCB
:1026800026F0140EDBCF27F0150EDBCF28F0120E4C
:10269000DBCF2AF0130EDBCF2BF0140EDBCF2CF0A8
:1026A000150EDBCF2DF0EFEC14F00E0E25C0DBFF86
:1026B0000F0E26C0DBFF100E27C0DBFF110E28C057
:1026C000DBFF3D0EF36E1E0EF3CFDBFF7E0EF36ECF
:1026D0001F0EF3CFDBFF0D0EF36E200EF3CFDBFFEB
:1026E000BF0EF36E210EF3CFDBFF0E0EDBCF00F03B
:1026F0000F0EDBCF01F0100EDBCF02F0110EDBCF9F
:1027000003F03A0E2A6E3F0E2B6ED40E2C6EC00EC6
:102710002D6E00C025F001C026F002C027F003C0D6
:1027200028F027EC16F0220E25C0DBFF230E26C072
:10273000DBFF240E27C0DBFF250E28C0DBFF0E0EBB
:10274000DBCF25F00F0EDBCF26F0100EDBCF27F00E
:10275000110EDBCF28F01E0EDBCF2AF01F0EDBCFD1
:102760002BF0200EDBCF2CF0210EDBCF2DF0EFEC89
:1027700014F0220EDBCF2AF0230EDBCF2BF0240E39
:10278000DBCF2CF0250EDBCF2DF0BDEC16F0010ECB
:1027900025C0DBFF020E26C0DBFF030E27C0DBFFD8
:1027A000040E28C0DBFF120EDBCF00F0130EDBCFD0
:1027B00001F0140EDBCF02F0150EDBCF03F0120E8A
:1027C000DBCF25F0130EDBCF26F0140EDBCF27F086
:1027D000150EDBCF28F0010EDBCF2AF0020EDBCF87
:1027E0002BF0030EDBCF2CF0040EDBCF2DF0EFEC43
:1027F00014F025C004F026C005F027C006F028C05C
:1028000007F025C02AF026C02BF027C02CF028C0E6
:102810002DF000C025F001C026F002C027F003C053
:1028200028F027EC16F0010E25C0DBFF020E26C0B3
:10283000DBFF030E27C0DBFF040E28C0DBFF046AAA
:10284000800E056E310E066E3F0E076E0C0EDBCF4E
:1028500026F00D0EDBCF27F013EC16F025C008F0A4
:1028600026C009F027C00AF028C00BF025C02AF0C6
:1028700026C02BF027C02CF028C02DF004C025F076
:1028800005C026F006C027F007C028F0EFEC14F0D2
:1028900025C000F026C001F027C002F028C003F0D8
:1028A000830E146E800E156E5E0E166EB90E176EC8
:1028B0000C0EDBCF26F00D0EDBCF27F013EC16F05D
:1028C00025C018F026C019F027C01AF028C01BF048
:1028D00025C02AF026C02BF027C02CF028C02DF0F0
:1028E00014C025F015C026F016C027F017C028F038
:1028F000EFEC14F025C010F026C011F027C012F044
:1029000028C013F0010EDBCF1CF0020EDBCF1DF050
:10291000030EDBCF1EF0040EDBCF1FF01CC02AF02D
:102920001DC02BF01EC02CF01FC02DF027EC16F0A0
:1029300025C00CF026C00DF027C00EF028C00FF007
:1029400025C02AF026C02BF027C02CF028C02DF07F
:1029500000C025F001C026F002C027F003C028F017
:1029600027EC16F0010E25C0DBFF020E26C0DBFFB0
:10297000030E27C0DBFF040E28C0DBFF010EDBCFF8
:1029800000F0020EDBCF01F0030EDBCF02F0040EED
:10299000DBCF03F000C024F001C025F002C026F018
:1029A00003C027F0260EE15C02E2E16AE552E16E27
:0C29B000E552E5CFDAFFE7CFD9FF1200B7
:0429BC002F9E05D075
:1029C0002F9E27AE02D0276C2F8E27C021F0206AC1
:1029D000336A326A860E226E236AA7EF15F02F6AD9
:1029E000E3EC15F0FBEC15F02FB68BEF15F02FA2F2
:1029F00005D02FB88BEF15F092EF15F02FAA05D068
:102A00002FB08BEF15F092EF15F02FB002D02FA85A
:102A100002D09EEF15F0236A2D502824226EE86A1A
:102A200023227E0E225EE86A235A326A336A206AC3
:102A3000216A2C502702F4CF21F0F3CF20F02B5045
:102A40002702F3503326F4502022000E21222C506E
:102A50002602F3503326F4502022000E21222A5061
:102A60002702F3503226F4503322000E2022212276
:102A70002B502602F3503226F4503322000E20222F
:102A800021222C502502F3503226F4503322000E1E
:102A9000202221222A502602F4503226000E332210
:102AA000202221222B502502F4503226000E332200
:102AB00020222122A7EF15F02F6AE3EC15F02FB6A4
:102AC00066EF15F02FA20ED02FB405D07F0E276E23
:102AD000FF0E266E1FD0800E276E266A1BD0276A37
:102AE000266A18D02FB0FBD78F0E2860EDD77E0E48
:102AF0002864F5D78E0E285C05E0D8902732263260
:102B0000282AF8D72FA406D0266C271EE86A272289
:102B100027AEE5D712007F0E286EFF0E276E266EB9
:102B2000256E12007F0E2FBEFF0E286E02D07F0E84
:102B3000286E800E276E266A256AF3D72FAE04D042
:102B4000800E286E276AF7D7286A276AF4D72150A3
:102B5000201033103210F8E023BEF0D721BE0CD085
:102B600022502310EBE0D89032363336203621360F
:102B70002206D8A02306F2D72350D4E12228D2E09F
:102B800032AE11D07F0E321402E133A00CD0332AC2
:102B9000E86A2022212207E3D88021322032333212
:102BA000222A2228BFE02250C9E033C025F020C0ED
:102BB00026F02134276E2230286E2732289E2FBE21
:102BC000288E91EF15F02736283602E32F842F7ECA
:102BD00006E12F80286A276A266A256A12002828BB
:102BE00003E0D88027321200D890273202E12F82EA
:102BF00012002F8612002C362D3602E32F8C2F7EEA
:102C000006E12F882D6A2C6A2B6A2A6A12002D2869
:102C100003E0D8802C321200D8902C32EAE12F8ABF
:102C200012002F9E08D02F9E27AE05D0266C271E9F
:102C3000E86A27222F8E27C021F026C020F0336AB1
:102C4000326A8E0E226E236AA7EF15F02D7E2F6A50
:102C5000E3EC15F0FBEC15F02FB68BEF15F02FA27F
:102C60000AD02FAA03D02FBE8BEF15F02FA497EF19
:102C700015F094EF15F02FAA05D02FAC97EF15F0B3
:102C800094EF15F02FA00AD02FA808D02FBE04D0A3
:102C90002FA402D0A0EF15F0A4EF15F0326A236A3A
:102CA0002D50285C316E10E325C033F026C020F093
:102CB00027C021F028C030F02AC025F02BC026F014
:102CC0002CC027F02F3A09D02AC033F02BC020F0B7
:102CD0002CC021F02DC030F0316C2F9E2FBC2F8ED8
:102CE00030C022F02FB0D3EF15F01A0E3160D3EFC1
:102CF00015F0226A286A2FA408D0256C261E271EEC
:102D0000281EE86A2622272228222FAC08D0336CFE
:102D1000201E211E221EE86A202221222222246A4D
:102D2000315207E028342732263225322432312E20
:102D3000F9D725503326265020222750212228500B
:102D4000222224C032F02F9E22AE0BD0326C331ED2
:102D5000201E211E221EE86A332220222122222246
:102D60002F8E22A006D0D880213220323332323248
:102D7000302A30C022F0A7EF15F02F6AE3EC15F0EF
:102D8000FBEC15F02FB68BEF15F02FA205D02FBA64
:102D90008BEF15F092EF15F02FBA9EEF15F02FA0E4
:102DA00005D02FB88BEF15F09EEF15F02FB892EFEE
:102DB00015F0236A7F0E2824226EE86A23222D5004
:102DC000225EE86A235A1A0E306E286A326A336A23
:102DD000206A216A2A50255E2B50265A2C50275AE9
:102DE000000E285A09E72A5025262B5026222C505F
:102DF0002722000E282201D0328AD8902536263686
:102E000027362836D8903236333620362136302EC3
:102E1000E1D7275026102510D8A4328AA7EF15F045
:102E200027C033F026C032F026502B02F4CF25F015
:102E3000F3CF24F027502C02F4CF27F0F3CF26F065
:102E40002B02F3502526F4502622E86A272232501E
:102E50002C02F3502526F4502622E86A27222CAEB5
:102E600036EF17F03250265E3350275A33AE000C3F
:102E70002B50265E2C50275A000C2F6AE3EC15F0DD
:102E80002FB647EF17F02FA20FD02FB407D07F0E29
:102E9000276EFF0E266E256E246E25D0800E276EBF
:102EA00001D0276A000EF6D72FB0FBD7246A9F0EF9
:102EB0002860EBD77E0E2864F4D79E0E285C07E0CE
:102EC000D8902732263225322432282AF6D72FA44A
:102ED0000AD0246C251E261E271EE86A25222622DB
:102EE000272227AEDED712008DEC17F02FB6000C8C
:102EF0002FB0010C000C8DEC17F02FB6000C2FB08A
:102F0000000C2FB4000C010C8DEC17F02FB6000C48
:102F10002FB0000C2FA4000C010C2F6AE3EC15F06D
:102F2000FBEC15F02FB612002FAE08D02FA004D066
:102F30002FA802D02F8012002F9012002D50285C55
:102F40000BE12C50275C08E12B50265C05E12A5050
:102F5000255C02E12F801200D8A002D02F8E10D065
:102F600028502DC028F02D6E27502CC027F02C6E35
:102F700026502BC026F02B6E25502AC025F02A6E35
:102F80002D50285C10E0FF0F09E02F902FB403D0E4
:102F90002FAE2F8412002FAE2F9412002D2AD8901E
:102FA0002C322B322A322A50255E2B50265A2C5096
:102FB000275A27BEEAD7D890253626362736282E18
:102FC000F8D7C8D726C032F026502B02F4CF25F010
:102FD000F3CF24F027502C02F4CF27F0F3CF26F0C4
:102FE0002B02F3502526F4502622E86A272232507D
:102FF0002C02F3502526F4502622E86A2722000CE2
:103000007E907E92928092829294E66AE66A010EA7
:10301000E66EA0EC22F0E552E552E5528984956A0D
:103020008C680A0EE66ED1EC23F0E5528B868B9A03
:103030008994898489940A0EE66EFFEC23F0E552A8
:1030400089840A0EE66EFFEC23F0E552899482B87B
:10305000FED7300EE66E82D8E55282B8FED789845C
:10306000360EE66E7BD8E5526CD8CB0EE66E3E0E81
:10307000E66E03D8E552E5521200D9CFE6FFE1CF64
:10308000D9FFF29E899482B8FED7FE0EDBCFE6FF11
:103090006FEC23F0E552FD0EDBCFE6FF6FEC23F083
:1030A000E5528984F28EE552E7CFD9FF1200D9CFDD
:1030B000E6FFE1CFD9FFE652F29E899482B8FED7AF
:1030C000FE0EDB508009E66E6FEC23F0E552A4ECB7
:1030D00023F0DF6E8984F28EDF50E552E552E7CFB0
:1030E000D9FF1200D9CFE6FFE1CFD9FFF29E899434
:1030F00082B8FED7FE0EDB504009E66E6FEC23F07F
:10310000E55200018F6BFB0EDB508F5D14E28F5197
:10311000E76EFC0EDBCFE9FFFD0EDBCFEAFFE750E9
:10312000E926000EEA22EF50E66E6FEC23F0E5523E
:1031300000018F2BE8D78984F28EE552E7CFD9FFC3
:1031400012002F0EE66E600EE66E000EE66EE66A68
:10315000C9DFE552E552E552E5521200D9CFE6FF4C
:10316000E1CFD9FFF29E899482B8FED7FE0EDBCF65
:10317000E6FF6FEC23F0E5528984F28EE552E7CF4B
:10318000D9FF1200D9CFE6FFE1CFD9FF360EE66EA8
:10319000E5DFE5523A0EE66EE1DFE552899482B84A
:1031A000FED77F0EE66E6FEC23F0E552040EE66E5E
:1031B0006FEC23F0E552E66A6FEC23F0E552FE0E69
:1031C000DBCFE6FF6FEC23F0E552FD0EDBCFE6FF31
:1031D0006FEC23F0E552FC0EDBCFE6FF6FEC23F043
:1031E000E5528984350EE66EB9DFE552E552E7CF48
:1031F000D9FF1200D9CFE6FFE1CFD9FF899482B879
:10320000FED7FE0EDB50C009E66E6FEC23F0E552F0
:1032100000018F6BFD0EDB508F5D08E23D0EE66E08
:103220006FEC23F0E55200018F2BF4D78984E5522F
:10323000E7CFD9FF1200D9CFE6FFE1CFD9FFE652A1
:10324000899482B8FED7FE0EDB50C009E66E6FECA3
:1032500023F0E552A4EC23F0DF6E8984DF50E552C1
:10326000E552E7CFD9FF1200D9CFE6FFE1CFD9FF72
:10327000360EE66E73DFE5523A0EE66E6FDFE5520C
:10328000899482B8FED77F0EE66E6FEC23F0E5528C
:10329000060EE66E6FEC23F0E552E66A6FEC23F063
:1032A000E552F90EDBCFE6FF6FEC23F0E552FA0EA4
:1032B000DBCFE6FF6FEC23F0E552FB0EDBCFE6FF42
:1032C0006FEC23F0E552FC0EDBCFE6FF6FEC23F052
:1032D000E552FD0EDBCFE6FF6FEC23F0E55289846B
:1032E000350EE66E3BDFE552E552E7CFD9FF12001F
:1032F000D9CFE6FFE1CFD9FF070EE1266ED8E76E02
:10330000060EE7CFDBFFDB50090831E1899482B874
:10331000FED7E6686FEC23F0E552A4EC23F0A4ECB2
:1033200023F0A4EC23F0DF6EA4EC23F0E76E010E93
:10333000E7CFDBFFA4EC23F0E76E020EE7CFDBFF65
:10334000A4EC23F0E76E030EE7CFDBFFA4EC23F041
:10335000E76E040EE7CFDBFFA4EC23F0A4EC23F030
:103360008984010EF36E050EF3CFDBFF0AD0060E43
:10337000DBCFE6FF3F0EE66E3DDFE552E552050E80
:10338000DB6AD9CFE9FFDACFEAFFEECF00F0EECF6C
:1033900001F0EECF02F0EECF03F0EECF04F0EFCF6E
:1033A00005F0D9CFE9FFDACFEAFFED50ED5005C0C7
:1033B000EDFF04C0EDFF03C0EDFF02C0EDFF01C053
:1033C000EDFF00C0EFFF070EE15C02E2E16AE552AB
:1033D000E16EE552E7CFD9FF1200D9CFE6FFE1CF8A
:1033E000D9FFE652899482B8FED7FB0EE66E6FECE9
:1033F00023F0E552A4EC23F0DF6E8984DF50E55220
:08340000E552E7CFD9FF1200ED
:08340800D9CFE6FFE1CFD9FFA7
:10341000030EE126F3EC0DF0DF6EF6EC0DF0E76E37
:10342000010EE7CFDBFFF9EC0DF0E76E020EE7CF00
:10343000DBFF010EE66EE66EE66EE2EC0DF0E552A5
:10344000E552E5520A0EE66E8DEC23F0E552E66A8F
:10345000010EE66EE66EE2EC0DF0E552E552E55245
:103460000A0EE66E8DEC23F0E552020EDBCFE6FF8E
:10347000010EDBCFE6FFDFCFE6FFE2EC0DF0E55219
:10348000E552E552030EE15C02E2E16AE552E16ECB
:10349000E552E7CFD9FF1200D9CFE6FFE1CFD9FF40
:1034A000030EE126F3EC0DF0DF6EF6EC0DF0E76EA7
:1034B000010EE7CFDBFFF9EC0DF0E76E020EE7CF70
:1034C000DBFF010EE66EE66EE66EE2EC0DF0E55215
:1034D000E552E5520A0EE66E8DEC23F0E552010E40
:1034E000E66EE66EE66AE2EC0DF0E552E552E55274
:1034F0000A0EE66E8DEC23F0E552020EDBCFE6FFFE
:10350000010EDBCFE6FFDFCFE6FFE2EC0DF0E55288
:10351000E552E552030EE15C02E2E16AE552E16E3A
:10352000E552E7CFD9FF1200D9CFE6FFE1CFD9FFAF
:10353000030EE126F3EC0DF0DF6EF6EC0DF0E76E16
:10354000010EE7CFDBFFF9EC0DF0E76E020EE7CFDF
:10355000DBFF010EE66EE66EE66EE2EC0DF0E55284
:10356000E552E5528D82010EE66EE66AE66EE2EC09
:103570000DF0E552E552E5520A0EE66E8DEC23F0B1
:10358000E552020EDBCFE6FF010EDBCFE6FFDFCF19
:10359000E6FFE2EC0DF0E552E552E552030EE15C88
:1035A00002E2E16AE552E16EE552E7CFD9FF12008F
:1035B000010EE66EE66AE66EE2EC0DF0E552E552CB
:1035C000E5521200E66A010EE66EE66EE2EC0DF0E0
:1035D000E552E552E5521200010EE66EE66EE66A2D
:1035E000E2EC0DF0E552E552E5521200010EE66EF6
:1035F000E66AE66AE2EC0DF0E552E552E5521200A9
:10360000E66A010EE66EE66AE2EC0DF0E552E5527E
:10361000E5521200E66AE66A010EE66EE2EC0DF093
:10362000E552E552E5521200E66AE66AE66AE2EC25
:103630000DF0E552E552E5521200E66A010EE66E23
:10364000E66EE2EC0DF0E552E552E552080EE66E4C
:103650008DEC23F0E552010EE66EE66EE66AE2ECD2
:103660000DF0E552E552E552020EE66E8DEC23F0C8
:10367000E552E66A010EE66EE66EE2EC0DF0E5520A
:10368000E552E552080EE66E8DEC23F0E552010E90
:10369000E66EE66AE66EE2EC0DF0E552E552E552C2
:1036A000020EE66E8DEC23F0E552010EE66EE66A40
:1036B000E66AE2EC0DF0E552E552E552080EE66EE0
:1036C0008DEC23F0E552E66AE66AE66AE2EC0DF07C
:1036D000E552E552E55212000001AE0502E1E2EFCB
:1036E0001AF0ECEF1AF0D9CFE6FFE1CFD9FFFE0ECA
:0C36F000DBCFAEF0E552E7CFD9FF1200AF
:0436FC00D9CFE6FF3D
:10370000E1CFD9FFFD0EDBCFE9FFFE0EDBCFEAFFF5
:10371000050EE926000EEA22EF5001E141D1FD0E2F
:10372000DBCFE9FFFE0EDBCFEAFF020EE926000E3B
:10373000EA22EF50050A01E1EFD0010A01E1EAD0E7
:10374000070A01E1A3D0010A5FE0030A5BE1FD0E75
:10375000DBCFE9FFFE0EDBCFEAFF040EE926000E09
:10376000EA22EF50630828E1FD0EDBCFE9FFFE0EF1
:10377000DBCFEAFF030EE926000EEA22EF506308D2
:103780001BE1FD0EDBCFE9FFFE0EDBCFEAFFEFCF43
:1037900000F0FC0EDB50005C0FE1FD0EDBCFE9FF1B
:1037A000FE0EDBCFEAFFEE52EFCF01F0FB0EDB5057
:1037B000015C02E1070EF5D0FD0EDBCFE9FFFE0E46
:1037C000DBCFEAFF040EE926000EEA22EF50006E7E
:1037D000016AFF0E001816E1015014E1FD0EDBCF67
:1037E000E9FFFE0EDBCFEAFF030EE926000EEA2218
:1037F000EF50026E036AFF0E021804E1035002E16B
:10380000080ECFD00C0ECDD0FD0EDBCFE9FFFE0EA3
:10381000DBCFEAFF040EE926000EEA22EF50006E2D
:10382000016AFF0E001816E1015014E1FD0EDBCF16
:10383000E9FFFE0EDBCFEAFF030EE926000EEA22C7
:10384000EF50026E036AFF0E021804E1035002E11A
:10385000020EA7D0FD0EDBCFE9FFFE0EDBCFEAFFA5
:10386000040EE926000EEA22EF500EE1FD0EDBCF3A
:10387000E9FFFE0EDBCFEAFF030EE926000EEA2287
:10388000EF5002E1030E8DD0010E8BD0FD0EDBCF89
:10389000E9FFFE0EDBCFEAFF040EE926000EEA2266
:1038A000EF5063080FE1FD0EDBCFE9FFFE0EDBCF2B
:1038B000EAFF030EE926000EEA22EF50630802E158
:1038C000040E6FD0FD0EDBCFE9FFFE0EDBCFEAFF6B
:1038D000040EE926000EEA22EF50006E016AFF0E88
:1038E000001816E1015014E1FD0EDBCFE9FFFE0EDA
:1038F000DBCFEAFF030EE926000EEA22EF50026E4C
:10390000036AFF0E021804E1035002E1050E49D0DC
:10391000060E47D0000E45D0FD0EDBCFE9FFFE0EB0
:10392000DBCFEAFF040EE926000EEA22EF5063081F
:103930000FE1FD0EDBCFE9FFFE0EDBCFEAFF030E4A
:10394000E926000EEA22EF50630802E1090E29D0B1
:10395000FD0EDBCFE9FFFE0EDBCFEAFF040EE9260A
:10396000000EEA22EF50006E016AFF0E001816E109
:10397000015014E1FD0EDBCFE9FFFE0EDBCFEAFFC5
:10398000030EE926000EEA22EF50026E036AFF0ED4
:10399000021804E1035002E10A0E03D00B0E01D01D
:0A39A0000C0EE552E7CFD9FF12002C
:0639AA00D9CFE6FFDACFE1
:1039B000E6FFE1CFD9FFE2CFDAFF130EE12402E305
:1039C000E168E652E16E0C0EDB6AD950FA0FE96E3F
:1039D000FF0EDA20EA6E080EEECFDBFF090EEECF07
:1039E000DBFF0A0EEECFDBFF0B0EEECFDBFFD95075
:1039F000010FE66E000EDA20E66ED950080FE96E70
:103A0000000EDA20EA6EEECFE6FFEECFE6FFEECF55
:103A1000E6FFEFCFE6FFE6EC1FF0006E060EE15C7E
:103A200002E2E16AE552E16E0050DF6E020EDF5CF9
:103A300001E0CAD0050EDBCF02F0060EDBCF03F0AB
:103A4000F80EDB50025C006EF90EDB500358016E7D
:103A50007F0E005E000E015A0D0E00C0DBFF0E0E41
:103A600001C0DBFF0D0E0E0EDBCF01F00001800E5A
:103A700001140AE0010EF36E0C0EF3CFDBFF070E0C
:103A8000DB5001E0A6D0ABD00D0EDBCF00F00E0E68
:103A9000DBCF01F0D890015004E6170E005C000E59
:103AA000015801E3ACD0046805687F0E066E076A12
:103AB0000D0EDB501F0B04C000F005C001F006C066
:103AC00002F007C003F007E0D8900332023201325F
:103AD0000032E806F9E10F0E00C0DBFF100E01C056
:103AE000DBFF110E02C0DBFF120E03C0DBFF0F0E67
:103AF000DBCF00F0100EDBCF01F0110EDBCF02F0B8
:103B0000120EDBCF03F0D950010FE96E000EDA2060
:103B1000EA6EEE500016EE500116EE500216EE5010
:103B20000316005001100210031002E1000E01D034
:103B3000010EE76E0C0EE7CFDBFFDB5060E0046A9E
:103B4000056A800E066E076A010E086E096A0A6A27
:103B50000B6AD9500F0FE96E000EDA20EA6EEE50B4
:103B60000826EE500922EE500A22EE500B22085091
:103B7000045C006E09500558016E0A500658026E2A
:103B80000B500758036ED950010FE96E000EDA2072
:103B9000EA6E0050EE160150EE160250EE1603507B
:103BA000EE16D950080FE66E000EDA20E66ED950F8
:103BB000010FE66E000EDA20E66E28EC1EF0E552EC
:103BC000E552E552E5521BD0DF0419E1070EDB5048
:103BD00006E0006A016A026A800E036E04D0006A81
:103BE000016A026A036A080E00C0DBFF090E01C009
:103BF000DBFF0A0E02C0DBFF0B0E03C0DBFFF60E7D
:103C0000DBCFE9FFF70EDBCFEAFF0C0EDBCFEFFFD8
:103C1000080EDBCF00F0090EDBCF01F00A0EDBCF80
:103C200002F00B0EDBCF03F000C024F001C025F042
:103C300002C026F003C027F0130EE15C02E2E16A45
:103C4000E552E16EE552E5CFDAFFE7CFD9FF12008A
:103C5000D9CFE6FFDACFE6FFE1CFD9FFE2CFDAFF37
:103C6000FC0EDBCFE9FFFD0EDBCFEAFF040EE926F9
:103C7000000EEA22EECF00F0EFCF01F001342DE28A
:103C80000050FE08000E015428E2220E0001AB6F26
:103C9000AC6BFC0EDBCFE9FFFD0EDBCFEAFF060EBF
:103CA000E926000EEA22EF500CE0FA0EDBCFE9FF26
:103CB000FB0EDBCFEAFFEE6AEE6A800EEE6EEE6878
:103CC000C1D0FA0EDBCFE9FFFB0EDBCFEAFFEE6AD5
:103CD000EE6A800EEE6E7F0E30D0FC0EDBCFE9FF79
:103CE000FD0EDBCFEAFF040EE926000EEA22EECF3E
:103CF00000F0EFCF01F0D890015004E6010E005C17
:103D0000000E015827E2220E0001AB6FAC6BFC0ED7
:103D1000DBCFE9FFFD0EDBCFEAFF060EE926000E42
:103D2000EA22EF500CE0FA0EDBCFE9FFFB0EDBCF0F
:103D3000EAFFEE6AEE6AEE6A800EEE6E83D0FA0E4D
:103D4000DBCFE9FFFB0EDBCFEAFFEE6AEE6AEE6A3D
:103D5000EE6A78D0FC0EDBCFE9FFFD0EDBCFEAFF89
:103D6000EECF00F0EECF01F0EECF02F0EFCF03F098
:103D7000FA0EDBCFE9FFFB0EDBCFEAFF00C0EEFF60
:103D800001C0EEFF02C0EEFF03C0EEFFFC0EDBCF72
:103D9000E9FFFD0EDBCFEAFF040EE926000EEA2262
:103DA000EECF00F0EFCF01F00050010B0CE0FA0E67
:103DB000DBCFE9FFFB0EDBCFEAFF020EE926000EA8
:103DC000EA22EF8E0BD0FA0EDBCFE9FFFB0EDBCF42
:103DD000EAFF020EE926000EEA22EF9EFC0EDBCF80
:103DE000E9FFFD0EDBCFEAFF040EE926000EEA2212
:103DF000EECF00F0EFCF01F0D89001320032FA0E92
:103E0000DBCFE9FFFB0EDBCFEAFF030EE926000E56
:103E1000EA2200C0EFFFFC0EDBCFE9FFFD0EDBCF97
:103E2000EAFF060EE926000EEA22EF500BE0FA0E3A
:103E3000DBCFE9FFFB0EDBCFEAFF030EE926000E26
:103E4000EA22EF8EE552E5CFDAFFE7CFD9FF120085
:103E5000D9CFE6FFE1CFD9FF090EE126D2EC08F079
:103E6000C3EC21F000EC18F0010EE66E010EE66ED8
:103E7000E66AE2EC0DF0E552E552E5520F0EE66E11
:103E80008DEC23F0E552010EE66EE66A010EE66E59
:103E9000E2EC0DF0E552E552E5520F0EE66E8DECC8
:103EA00023F0E5524AEC09F0E0EC0AF0DF6ED2ECC8
:103EB0000AF0E76E010EE7CFDBFF030EF36E060E8E
:103EC000F3CFDBFF0400060EDB50040A63E0040AB4
:103ED0003EE0020A34E0010A01E06CD06CEC1BF019
:103EE000040EE66E25EC0AF0E552070EF3CFDBFF79
:103EF000080EF4CFDBFFD950070FE96EDACFEAFFE7
:103F00000B0EEE1801E1ED5006E1020EF36E060E07
:103F1000F3CFDBFF13D0D950070FE96EDACFEAFFFA
:103F20000F0ED880EE54270EED5403E2060EDB6A26
:103F300005D0040EF36E060EF3CFDBFF3CD0EEECA3
:103F40000AF0030EF36E060EF3CFDBFF34D000EC65
:103F50001BF0D950070FE96EDACFEAFFBA0EEE1860
:103F600002E12A0EED1803E1B8EC0BF00DD0D950A8
:103F7000070FE96EDACFEAFF150EEE1802E1280E00
:103F8000ED1802E19BEC0CF0030EF36E060EF3CF7E
:103F9000DBFF11D0070EDBCFE6FF080EDBCFE6FF1D
:103FA0002AEC0DF0E552E552030EF36E060EF3CF48
:103FB000DBFF01D000D086D7090EE15C02E2E16AA6
:0C3FC000E552E16EE552E7CFD9FF120098
:043FCC00D9CFE6FF64
:103FD000DACFE6FFE1CFD9FFE2CFDAFFE6520068A1
:103FE00001687F0E026E036AD950FA0FE96EFF0E68
:103FF000DA20EA6EEE500016EE500116EE50021670
:10400000EE500316F80EDBCFE9FFF90EDBCFEAFF27
:1040100000C0EEFF01C0EEFF02C0EEFF03C0EEFFE6
:10402000FD0EDB50800B02E0010E01D0000EE66EAB
:10403000F80EDBCFE9FFF90EDBCFEAFF060EE9262B
:10404000000EEA22E552E750EF6EFC0EDBCF00F0E7
:10405000FD0EDBCF01F0D89000360136FC0E00C01B
:10406000DBFFFD0E01C0DBFFDB50E66EF80EDBCFA1
:10407000E9FFF90EDBCFEAFF040EE926000EEA2283
:10408000E552E750EE6EED6AFD0EDB50006E016A00
:10409000FF0E00181DE101501BE1F80EDBCFE9FF18
:1040A000F90EDBCFEAFFEECF00F0EECF01F0EECF5E
:1040B00002F0EFCF03F0005001100210031006E0F1
:1040C000210E0001AB6FAC6B800E10D0040E0ED031
:1040D000FD0EDB500DE1F80EDBCFE9FFF90EDBCF73
:1040E000EAFFEE6AEE6AEE6AEE6A010EDF6E0BD050
:1040F000020EDF6EF80EDBCFE9FFF90EDBCFEAFF31
:10410000EE52EE52EE8EDF50E552E552E5CFDAFF89
:06411000E7CFD9FF120009
:0A411600D9CFE6FFDACFE6FFE1CFD4
:10412000D9FFE2CFDAFF0C0EE12402E3E168E652A8
:10413000E16ED950FA0FE96EFF0EDA20EA6E080E32
:10414000EECFDBFF090EEECFDBFF0A0EEECFDBFF7B
:104150000B0EEECFDBFFD9CFE6FFDACFE6FFD9506B
:10416000080FE96E000EDA20EA6EEECFE6FFEECF22
:10417000E6FFEECFE6FFEFCFE6FFE6EC1FF0006EC6
:10418000060EE15C02E2E16AE552E16E0050E76E84
:10419000070EE7CFDBFFDB50840B3DE1070EDB04AE
:1041A0001AE1060EDB5006E0006A016A026A800E20
:1041B000036E04D0006A016A026A036A080E00C036
:1041C000DBFF090E01C0DBFF0A0E02C0DBFF0B0E96
:1041D00003C0DBFF20D0F80EDBCF00F0F90EDBCF01
:1041E00001F0D950040FE96E000EDA20EA6E00509B
:1041F000EE260150ED22D950080FE66E000EDA20AF
:10420000E66ED9CFE6FFDACFE6FF28EC1EF0E552E6
:10421000E552E552E552080EDBCF00F0090EDBCF88
:1042200001F00A0EDBCF02F00B0EDBCF03F000C073
:1042300024F001C025F002C026F003C027F00C0EC8
:10424000E15C02E2E16AE552E16EE552E5CFDAFFB8
:06425000E7CFD9FF1200C8
:0A425600D9CFE6FFDACFE6FFE1CF93
:10426000D9FFE2CFDAFF0C0EE12402E3E168E65267
:10427000E16ED950FA0FE96EFF0EDA20EA6E010EF8
:10428000EECFDBFF020EEECFDBFF030EEECFDBFF48
:10429000040EEECFDBFFD950050FE66E000EDA20DC
:1042A000E66ED950010FE96E000EDA20EA6EEECF0D
:1042B000E6FFEECFE6FFEECFE6FFEFCFE6FFE6EC60
:1042C0001FF0006E060EE15C02E2E16AE552E16E6B
:1042D0000050DF6E850EDF1409E0F80EDBCFE9FF3A
:1042E000F90EDBCFEAFFEE6AED6A2DD0090EDBCFC7
:1042F00000F00A0EDBCF01F0820E0026FF0E012235
:10430000F80EDBCFE9FFF90EDBCFEAFF00C0EEFFCE
:1043100001C0EDFF7E0EF36E090EF3CFDBFF0A0E38
:10432000DB6AD950010FE66E000EDA20E66ED95036
:10433000050FE66E000EDA20E66E28EC1EF0E55260
:10434000E552E552E552010EDBCF00F0020EDBCF65
:1043500001F0030EDBCF02F0040EDBCF03F000C050
:1043600024F001C025F002C026F003C027F00C0E97
:10437000E15C02E2E16AE552E16EE552E5CFDAFF87
:06438000E7CFD9FF120097
:0A438600F19E938093829384939636
:104390009398929C929E7C807C827C841200D9CFE0
:1043A000E6FFE1CFD9FFFE0EDB508C6EE552E7CF82
:1043B000D9FF12000001630EA86F8A868A88898C53
:1043C000898E8A9681B002D0010EA86F8A868A985B
:1043D00081B002D0040EA86F8A88899C81B002D077
:1043E000070EA86F898C899E81B002D00A0EA86F33
:1043F000898E8A9681B202D0020EA86F8A868A9828
:1044000081B202D0050EA86F8A88899C81B202D041
:10441000080EA86F898C899E81A2A86B898E8A96C6
:1044200081B402D0030EA86F8A868A9881B402D024
:10443000060EA86F8A88899C81B402D0090EA86FE5
:10444000898C899E81B402D00B0EA86F898EA851E9
:1044500012000001630EAD6FADDF0001A75D1CE02F
:10446000A52B000EA623640ED880A555000EA655D8
:1044700015E287EC09F09EDF006E630E005C03E23C
:1044800099DF0001AD6F0001A56BA66B93DF000102
:10449000A76F7CEC09F002D0A56BA66B0001AD51B3
:0244A000120008
:0E44A2002C0EF66E010EF76E000EF86E000185
:1044B0000900F550956F0900F550966F03E1956777
:1044C00001D03DD00900F550906F0900F550916F73
:1044D0000900F550926F09000900F550E96E0900D6
:1044E000F550EA6E090009000900F550936F0900C4
:1044F000F550946F09000900F6CF97F0F7CF98F0C8
:10450000F8CF99F090C0F6FF91C0F7FF92C0F8FF86
:104510000001935302E1945307E00900F550EE6E59
:104520009307F8E29407F9D797C0F6FF98C0F7FF12
:1045300099C0F8FF00019507000E965BBFD71200E7
:10454000D9CFE6FFDACFE6FFE1CFD9FFE2CFDAFF3E
:104550003F0EC716C66AFD0EDB50C612FB0EDB50BF
:10456000C712FC0EDB50030A09E0010A04E0020A4C
:1045700006E1C78C04D0C78CC68801D0C688FD0E62
:10458000DB50050A06E0010A06E19486928A7E98CD
:1045900003D0948601D094969488949AC68AE55262
:0A45A000E5CFDAFFE7CFD9FF1200E4
:0645AA00D9CFE6FFDACFD5
:1045B000E6FFE1CFD9FFE2CFDAFFE652E652D9506B
:1045C000FD0F006EFF0EDA2000C0DEFFDD6EDECFD5
:1045D000E9FFDDCFEAFFEF9EFA0EDBCF00F0FB0E26
:1045E000DBCF01F0FC0EDBCF02F0FD0EDBCF03F0E2
:1045F00000C024F001C025F002C026F003C027F05F
:10460000E552E552E552E5CFDAFFE7CFD9FF1200D8
:10461000D9CFE6FFE1CFD9FFA69EA69CFE0EDB50C8
:10462000A96EA680A850E552E7CFD9FF1200D9CFD6
:10463000E6FFE1CFD9FFA69EA69CFD0EDB50A86E3B
:10464000FE0EDB50A96EA684F29E550EA76EAA0E32
:10465000A76EA682F28EA6B2FED7A694E552E7CF49
:04466000D9FF12006C
:0C466400D9CFE6FFDACFE6FFE1CFD9FFA7
:10467000E2CFDAFFE652E652D650DF6E010ED7CF18
:10468000DBFFDECF00F0DDCF01F000C0F3FF01C0A3
:10469000F4FFE552E552E552E5CFDAFFE7CFD9FF67
:0246A000120006
:0E46A200FE0EE3CFA9F0FF0EE3CFAAF0120048
:1046B000AAC027F0A9C026F0350E2B6E450E2C6E31
:1046C000E2EC17F0242AE86A2522259E25C0AAF0EC
:0E46D00024C0A9F0A9C0F3FFAAC0F4FF120095
:0246DE00D9CF32
:1046E000E6FFDACFE6FFE1CFD9FFE2CFDAFFE6520D
:1046F000C950DF6E9E96C69EFD0EDB50C96EC6AEDB
:1047000002D0FF0E03D09EA6FED7000EE552E55262
:0A471000E5CFDAFFE7CFD9FF120072
:06471A00FF0EE350356EB6
:10472000EF0E01D0F30EE76EE72E94EF23F00C0EA0
:10473000346EE76AE72E9AEF23F0342E99EF23F0D8
:08474000352E92EF23F0120068
:08474800D9CFE6FFDACFE6FF4E
:10475000E1CFD9FFE2CFDAFFE652C950DF6E9E9675
:10476000C96A9EA6FED7C950E552E552E5CFDAFFE9
:06477000E7CFD9FF1200A3
:0A477600236A226A100EE76ED89045
:1047800026362736223623362B50225C2C502358CF
:1047900005E32B50225E2C50235A262AE72EF0D711
:0247A000120005
:0E47A200FF0EE350356E480E01D04C0EE76E50
:1047B000E72EFED7E76AE72EFED7352EF7D70000A3
:0247C0001200E5
:0E47C200000EF36E00EE00F0060E01D812009D
:1047D000EA6002D0EE6AFCD7F350E9601200EE6A9C
:0247E000FCD704
:0E47E20015EE00F025EE00F0F86A2F9C51EC69
:0E47F00022F003EC00F028EC1FF0FBD71200C3
:0247FE00FF0EAC
:10480000E350E84E1200000000D000D000D0E82EA7
:04481000FAD71200C1
:024814000100A1
:0148160001A0
:0448170000006363D7
:05481B00001300000085
:10482000062E0707D3913D0C0500000A0022B6278B
:1048300035830321EE65073B18166C074091876BA3
:10484000F85710E92A001F4100597F3C88350900BC
:020000040030CA
:0100010008F6
:010002001BE2
:010003001AE2
:010005008971
:010006008178
:010008000FE8
:01000900C036
:01000A000FE6
:01000B00E014
:01000C000FE4
:01000D0040B2
:00000001FF
